:040000006F108035C8
:1000040000000000000000006F0080086F00E02284
:1000140000000000000000000000000000000000DC
:1000240000000000000000000000000000000000CC
:100034006F004006000000006F00E00500000000B3
:100044006F00E0336F0060056F0040056F0020050E
:100054006F0000056F00E0046F00C00400000000A2
:100064006F0060046F0040046F0040256F000004BF
:100074006F0060236F00C003000000006F00600386
:100084006F0040036F0020036F0000036F00E00265
:1000940001A001A001A001A001A001A001A001A054
:1000A40001A001A001A001A001A001A001A001A044
:1000B40001A001A001A001A001A001A0B717004068
:1000C400130770052380E704130780FA2380E704ED
:1000D4002396A70223800704371700408347270588
:1000E400898BEDDF835707053717004083472705C2
:1000F400898BEDFF3717004083472705898BEDDF98
:10010400035507058280B7170040930670052380C6
:10011400D704130780FA2380E70403C6B7041376D1
:10012400F60DA385C70423800704137605022DC6A4
:1001340003C6A700118A0DE22380D7042380E704B5
:1001440003C7A700136747002385E7009307004B05
:1001540001000100FD17EDFFB7170040930670057D
:100164002380D704130780FA2380E7047D8923942E
:10017400A70001000100010001002380070423807F
:10018400D7042380E7049306100537270040A30310
:10019400D780238007048280137605046DDE03C6AE
:1001A400A700418A0DE22380D7042380E70403C714
:1001B400A700136707012385E7009307007D01006B
:1001C4000100FD17EDFFB71700409306700523806B
:1001D400D704130780FA7D892380E7041365050497
:1001E4002394A700010001000100010023800704FB
:1001F4002380D7042380E704930630053727004083
:1002040079B74111814601468145114506C60D263F
:10021400B7170040130770052380E704130780FA1B
:100224002380E70403C76704136717002383E704E5
:1002340023800704B2404101828081460146814502
:100244001145FD24B7170040130770052380E70408
:10025400130780FA2380E7047D572396E70203C738
:100264006704136717002383E7042380070401A0AE
:10027400BD473305F50201007D1575FD82804111EE
:1002840022C426C206C6AA84014463179400B2405D
:10029400224492444101828005041305803E4204B5
:1002A400C13F4180DDB7B71700401307000323881F
:1002B400E702054723A4E18873002030411126C4D6
:1002C40022C6B734004083C744001147BD8B639EE8
:1002D400E7049386F18803C706009387F1881377B0
:1002E400F70F1384C18825C30357040042074183D1
:1002F40031C3035704009306001063EDE6028357ED
:10030400040013970701418393071700C207C183B1
:100314002310F40083C68400938701A8BA9723802E
:10032400D70097E0FFDFE780807B3244A24441019D
:1003340073002030238007002310040097E0FFDFC0
:10034400E780C07CDDB785472380F60097E0FFDFB8
:10035400E780E07823100400835704001397070113
:10036400418393071700C207C1832310F40083C697
:100374008400938701A8BA972380D7007DB73727D5
:10038400004083476700858BE5C7011122CE26CC48
:1003940005442303870097E0FFDFE7802077A387E6
:1003A400018883D5C188138501A897E0FFDFE78022
:1003B400C07A21E59305A10068002387818897E02E
:1003C400FFDFE78020770354A1009947B24463FA22
:1003D4008708B7E501001D4693850542268597A049
:1003E40001E0E780A06F19ED37E50100954513059D
:1003F400854297E0FFDFE78060787244E24405615C
:1004040073002030B7E501001D469385054326851A
:1004140097A001E0E780806C01ED930594FFC2058D
:10042400C1811385740097E0FFDFE780E05A6DBF58
:100434009D476308F402B7E501002146938585438F
:10044400268597A001E0E780606901ED930584FFAC
:10045400C205C1811385840097E0FFDFE780605DFA
:1004640061B7A285268597F0FFDFE780C0E171B709
:10047400730020302303048015472303E480010024
:100484002302A480828083076480E3CE07FE2303D3
:100494000480828083076480E3CE07FE03454480A2
:1004A400828083076480E3CE07FE2302A4808280D7
:1004B400411126C44AC24EC006C61377F50BAD4798
:1004C400AA892E8995446306F70019456537653F67
:1004D4008D444E854537FD59FD1463983401B2406F
:1004E400A2441249824941018280135509011375BE
:1004F400F50F453F2209CDB7011126CC06CEB7042E
:10050400080051371545BD37713769372AC6A53FED
:1005140032459377150089EB136515001375F50FB4
:10052400F240E24405618280FD14E9FC0145CDBF3F
:10053400397126DC4ADA4ED852D656D45AD25ED015
:1005440006DE62CE66CCB7E700E07D5783AA0700DB
:1005540022C603AA470023A0E71823A2E718B71767
:100564000040130770052380E704130780FA2380F3
:10057400E70483C74704930B75FFB684E20793FB34
:10058400FB0F8546AA892E8B328937240040E187E8
:10059400015763FA76016308D50089461307000200
:1005A4006313D5000157D98F93F7F70FB71C004099
:1005B4002382FC0411472303E4801305F00F5D3DFF
:1005C400094CD13563697C11B70707003E9B378717
:1005D40007007955637EEB02B3079B00636AF70259
:1005E400A9476399F90689E48144713D26850DA0E4
:1005F400DA850945753D05090345F9FFFD14050B29
:100604004D3581C49377FB0FFDF7FD3569FD7D55AD
:10061400B7170040130770052380E704130780FA17
:100624002380E70403C74704418B2382E704F25085
:10063400B7E700E023A0571123A24711E254324444
:100644005259C259325AA25A125B825B724CE24C22
:1006540021618280A5476395F90685691309F00F26
:10066400B3069900B3742B01B6941349F9FFB3741C
:100674009900856B33796901416B9387F9FFB3F76F
:10068400270199E363FC340193D94900C147E3E6A8
:1006940037FF99BF0569C1697D19D9B71305800D65
:1006A4006388690113050002638479011305100846
:1006B400CA85FD3B913521DD4E99B3843441D9B7C8
:1006C400DA852D45F533CA94E30099F20509D93347
:1006D400A30FA9FED5BF9387F9FF93F7F70F636CB8
:1006E400FC0803C75C04B70708001377070219E383
:1006F400B78707007955E37DFBF033079B00E3E9F7
:10070400E7F089476390F9048980D549E38E04ECC6
:10071400DA850945713B11090327C9FF9147232055
:10072400E48003076480E34E07FE23033481FD174E
:10073400EDFBFD14110B81C49377FB0FE9FF6D3BB7
:1007440071F5F1B58547E387F9F4DA852D458D33E5
:100754009389F4FFE38A04E8353B93F7390091EB7E
:10076400832604800327090093074900E39FE6E6F4
:100774003E89CE84F1BFB5476396F9001305900B0B
:10078400D5399DB5B1471305B00AE38BF9FE9947F6
:10079400639EF902DA852D45213B81448D4BA149A5
:1007A400D53963967401832704802320F9008504D6
:1007B400E39834FF8327048013172B016355070044
:1007C4002312F90015B52322F90039BD9D47639919
:1007D400F90281451305B004E139BD442320090021
:1007E40023220900FD597D3193F77400CA9703C78A
:1007F4000700FD14398D2380A700E39634FFEDB381
:10080400A1476392F904CD398144630D0B008D47F0
:100814009304C0036308FB009304000563048B0185
:10082400930440041375C507E30095DC1945993119
:100834009939054581312685AD3109459D316D399B
:10084400E31405DAE9B391476399F90013056006E7
:10085400153115391305900925B7E38709D8F154E3
:1008640069B319CDB7170040130770052380E70457
:10087400130780FA2380E7042396A7022380070442
:10088400828019C1814799E982803387F5008346C4
:1008940007003307F50085072300D700E397C7FE59
:1008A400E5B719C1FD5781E98280910503A7C5FF0A
:1008B4001105232EE5FE7D16E319F6FEF5B77971D1
:1008C40022D4173400001304A4951C4006D626D263
:1008D4004AD04ECE91C782979737000023A207943F
:1008E4005C4089CB03D5418BAD3F5C40829703D5F7
:1008F400618B853F1C40639C07189737000083C7B2
:10090400B7A5858B95C797370000A38707A417372A
:100914000000034797A4914763FCE700752B9737C2
:10092400000083C797A3F9178A07A2979C4382976D
:100934009737000083C707A7918B89C7972001E0E9
:10094400E78000881C4491C382979387018B984366
:10095400173600000346D68A3E89973400009384F4
:10096400248A9737000083C7A78993961700BA96FD
:1009740083D60600638306109737000083C7478831
:1009840063FBC70686073E978355070023100700BD
:1009940003D5418B2EC6F1359387418C9C43173583
:1009A40000000345E58513172500BA979C43B2451B
:1009B4008297AA8903D5618B6D359737000083C769
:1009C40027841397170083270900BA9703D70700D2
:1009D400B3E9E9002390370183C70400850793F73F
:1009E400F70F17370000230DF78017370000034770
:1009F400378163E6E70097370000238307801C40B4
:100A0400D9E79387C18B98433E8451C3973700003D
:100A140083C7F79491CB9737000083C7179489E76E
:100A2400971001E0E78040331C4082972A8425C157
:100A34009C48AA9717270000232CF77C9387018CE6
:100A44009C4381CF03D5418B293D228597F0FFDF5D
:100A5400E78080D303D5618B2935972700009387DE
:100A64006776DC538DC72254B25092540259F2492E
:100A7400456117F3FFDF6700E3A9850793F7F70FD5
:100A840097260000238EF676E3EDC7ECF5B5B25059
:100A9400225492540259F249456182809167B7C643
:100AA40000409387373023A6F6200F1000009727C5
:100AB40000009387E774884F9387C19A9C433167FA
:100AC40013073730F053B7071000FD17918F998340
:100AD4003A0523A6E6205D8D82804111B7170040B8
:100AE400985F3AC6945F3247E39CE6FE3245410183
:100AF4008280411106C6D5379726000083C6C66D8D
:100B0400858AB1C6930730333307F502B337F5024C
:100B14003983CA07D98F172700001307676E584B0C
:100B240001456303F7023385E740636BF7003765DC
:100B34003D0889C637856F0813050590198D3E95C4
:100B4400172700002328F76CB24041018280E54753
:100B54003307F502B337F5022583DE0765BF0327A4
:100B6400C50F8346B500972700009387A77E9C4F47
:100B740058439386160295829043FD1693F6F60F1A
:100B840010C3D04350C3904710C7D04750C7904BB1
:100B940010CBD04B50CB904F10CFD04F50CF91C6ED
:100BA4001307070293870702C1BF82808347E501C9
:100BB40093F7E70F91CB014582800145B24022446F
:100BC40092440249410182808347F501EDF783464F
:100BD40005010347850089CA03466502972700007B
:100BE40083C7975F6367F60093770701E9D7814767
:100BF40089CA834705158346F514418BA207D58F0F
:100C040001CB03474515834635152207558FBA97FF
:100C1400DDD3172700000347275C41119316870192
:100C240006C622C426C24AC0E18663D50604938759
:100C3400C71313D45700972700009387277DBC4719
:100C44009724000083C4E4597D5903A707086373FC
:100C540027013A899C43F5FB9387818C9C438297B7
:100C6400E36DA9F43305A940269433348500134574
:100C74001400A9B7058B9387C71209CB8A0713847D
:100C8400F7039307D0073354F40275B78607138428
:100C9400F7019307D003C5BF5D7122DE1384C199A8
:100CA4003AD218403ED04ACA1C5F86C696C499837D
:100CB4009AC29EC026DC2ADA2ED832D636D442CE48
:100CC40046CC72C876C67AC47EC2858B1389819954
:100CD400C1C31C5F972400009384C46793F7F7F99A
:100CE4001CDF9727000083C7E76693F707048DC3CB
:100CF4009387818C9C4382979727000023A4A7663F
:100D040083C7040093F7F70B172700002304F76445
:100D1400854717270000A301F76483C7440093F7AE
:100D2400070481EF9387C19A9C43D844B8D39307AF
:100D340000FC172700002301F7628387640063D94E
:100D44000700832709009C43172700002307F76047
:100D540018401C5F8583858BC9CBF5571CDF0100C8
:100D64000100010001000100010001000100010077
:100D74000100010001000100010001000100010067
:100D84000100010001000100010001000100010057
:100D94000100010001000100010001000100010047
:100DA4000100010001000100010001000100010037
:100DB4000100010001000100010001000100010027
:100DC4000100010001000100010001000100010017
:100DD40001000100010001000100010001009387EE
:100DE400C19A9C4313075004B8CB18401C5F9183ED
:100DF400858B89CFBD571CDF9387C19A9C4323A859
:100E040007048547172700002308F75483270900A0
:100E1400D8430583058B19C7D843759BD8C3D843DA
:100E2400799BD8C37254B640A64216438643E25413
:100E34005255C2553256A256125782577248E2484A
:100E44005249424EB24E224F924F6161730020309C
:100E5400172700001307075083474700858B89EF46
:100E640083472700858B89EB83473700858BEDD734
:100E7400972700002382074E82809387819A9C43A0
:100E840099CB944BD04B9842518F98C294439C4732
:100E94009842D98F9CC29387C19A9C4337C700401C
:100EA4001306C003A8CB930620039725000093855F
:100EB400654A83278720C18393F7F7036369F600A4
:100EC40083278720C18393F7F70363E6F60083C77C
:100ED4004500858BF9DF82801727000013078747B9
:100EE40083474700858B89EB83470700858B91CB2C
:100EF400972700002382074697270000A38E074404
:100F0400828083471700858BE1DFDDB79387819A61
:100F14009C4399CB944BD04B9842518F98C29443A5
:100F24009C479842D98F9CC29387C19A9C4337C7E8
:100F340000404146A8CBE5469725000093858541AE
:100F440083278720C18393F7F703637DF600832704
:100F54008720C18393F7F70363E6F60083C7450050
:100F6400858BF9DF82801387C1991843AA87185F9C
:100F74001583058B25EF0345150015051377C51F4C
:100F840019C6B386E70083C626002300D60095C59C
:100F94009726000083C6663C93F606040945A1CA59
:100FA400B386E70083C63600054693F5F6066390DC
:100FB400C504E206E18663CC06023385E700834775
:100FC400150003470500A20793F70770D98F1397FD
:100FD400070141839376074099C6136707802392DC
:100FE400E19A014582802392F19AE5BF054582800A
:100FF400011136C89386C19A2ECC8C423AC63EC49F
:1010040098452ACE32CA9317070142C2C183137886
:10101400172036853E86972600009386A633630400
:1010240008041377072061CF03C72600136717004E
:10103400172800002301E83213070019B8D1130759
:1010440000F8972500002389E5301387C1990C43E4
:1010540037080010D855719B13672700D8D59841DD
:101064003367070198C11377261005C3137606105A
:1010740045CA03C706001367170017260000230B91
:10108400E62C17270000231B072C83C6460093C7B2
:10109400F7FFC207E206E186C183184163D1060265
:1010A4009396170163D7060830538D4663E9C6004B
:1010B4008546172600002301D62A3453FDFE9726C1
:1010C4000000938626108386460163DD060093960E
:1010D4000701C18663D506067053894663E4C600DA
:1010E4007453FDFE14477245E245F58F1CC7524602
:1010F400C2463247A247124805617300203003C735
:1011040016001367170097250000A385E524172709
:101114000000230307241727000023110724A1B785
:1011240003C736001367170017260000A305E6223D
:1011340089BF8546172600002300D62249B75447A5
:101144001396060163510602B7061000FD1674D308
:10115400972600009386C60A944E8506172600003B
:10116400232CD60A41B7A166D58FADBF172700003F
:10117400130707208346B7019727000083C79722E8
:10118400B69793F7F70FFD4663EAF6044C4B9726A0
:101194000000A38FF61C9727000083C7771D05471F
:1011A4003317F70097260000A38EF61E6D8F1DEFF0
:1011B4009726000083C6561FB3F6D7021305000214
:1011C400814733D6F500058A13F8F70F09CE6399E2
:1011D400E60097270000A38D0719828081177DB749
:1011E40005071377F70F8507E39DA7FC8280938794
:1011F400419B9843B75702009387079F83260709AB
:101204001396560063580600832607091396660052
:1012140063440600FD17FDF3828051C9AA87014586
:10122400C9C98D07C207C183F19BC207C1831307D4
:101234004003636BF702138781A40843138701A457
:1012440014436396A602172700001307A7F7185B39
:10125400014525C34111C20706C60545DD8D029728
:10126400B240014541018280138741A4F9B7035775
:10127400650005EF035745006369F702B306F740BD
:1012840021466370D6021041938687001D8FAA966B
:10129400611790C22392E6002393060014C123121F
:1012A400F5002313B50021058280084159BF01458B
:1012B4008280828001CD938781A403A8070093874D
:1012C40001A48C430147C28763E3B700828094433F
:1012D400636FF50663EDA60613868700E368C5FE13
:1012E40003D56700216605066317C50003C601968A
:1012F40005062380C196239307006384070313869E
:1013040041A41042630FF6000356670019EA83D71D
:10131400470014C383564700B697A1072312F7006A
:10132400BA879843E304B7FA938641A49442E30F3F
:10133400D7F883566700D9FA83D647000356470087
:101344001843A106B2962392D70098C382803E87A1
:04135400B6879DBFFC
:10135800974100209381011C17710020130101CAD5
:10136800130540009725002093854549173600202E
:101378001306067E63FAC5008322050023A05500E4
:1013880011059105E3EAC5FE17D5010013050562AD
:10139800973500209385C57B1386818663FAC5003F
:1013A8008322050023A0550011059105E3EAC5FE37
:1013B80013858186976500209385858F6377B500AF
:1013C800232005001105E36DB5FE9302800873A084
:1013D8000230972200209382624293E212007390B7
:1013E80052309712000093824203739012347300B4
:1013F8002030B717004003C777051377E70FA38B93
:10140800E704130700F8A38DE7043D47238CE7049E
:1014180013077003A38CE7048280B717004003D535
:1014280087005D715ED64205418186C6A2C4A6C208
:10143800CAC04EDE52DC56DA5AD862D466D26AD0B6
:101448006ECE9377050C13070008814B638DE71662
:10145800130700046395E714B7240D8F7D899384DF
:101468000480B3D4A4029167BE94EFC0F105B7E736
:10147800010003A6873B83A6C73BBD80EFC0813927
:10148800EFC011472A8C03D98186139D0401135D8F
:101498000D01938A8186631509000569130909807E
:1014A800B7170040130770052380E704130780FA75
:1014B8002380E704371A0040054793960401896C96
:1014C8002389E704514B014E8145930D0A04130803
:1014D8007005130680FA8948C182938C0C712943E0
:1014E80023800D012380CD0023162A0323800D00BD
:1014F80083472A05898BEDDF83570A0583472A0529
:10150800898BEDFF83472A05898BEDDF83570A0511
:1015180023902A01C207C1833385A7419319050186
:1015280093D90941638709143387B9026358070CB3
:10153800050E420E135E0E0163E2C80D63D3050A61
:101548003305B04093150501C185C204C18063D13C
:10155800350B0965130505713385A502B7170040DA
:10156800130770052380E704130780FA2380E70434
:10157800239677032380070433459502420541816A
:10158800B640264496440649F259625AD25A425BFA
:10159800B25B225C925C025DF24D6161828085EFF4
:1015A800B77489097D8993840480B3C4A4029167C0
:1015B800BE94EFC06171B7E70100BD8403A6073C84
:1015C80083A6473C65BDB7E70100856403AC473B8C
:1015D800938434314DBD130C000095446DB53A89A0
:1015E80001B7B307FD409399070193D90941B1BFEA
:1015F8000965130505713385A902BDBF3385D74039
:101608006364FD003385F640330595033344D50202
:1016180063458300131504019DB74E8536C642C441
:1016280032C2EFC09120E285EFC00171EFC0D1193D
:10163800131E0501135E0E413307C941420741835A
:10164800124622488948B2462943631AE90013071B
:101658001900634430011307F9FF420741837D1BDA
:10166800137BFB0FCA8BCE85E31B0BF62390EA0096
:1016780055B7014531B7B717004003D587005D71ED
:1016880086C642054181A2C4A6C2CAC04EDE52DC4B
:1016980056DA5AD85ED662D466D26AD06ECE02C600
:1016A8009377050C130700086381E71413070004F8
:1016B8006399E710B7240D8F7D8993840480B3D490
:1016C800A4029167BE94EFC02160B7E7010003A6AA
:1016D800873B83A6C73BBD80EFC0C113EFC0512134
:1016E8002A8A03D9A186939B040193DB0B01938972
:1016F800A18663150900056913090980B717004019
:10170800930670052380D704930680FA2380D704B4
:10171800139C04018546896A2389D704514B814D5E
:10172800014D135C0C01938A0A714A8597200020A9
:10173800E7808018B30C7541C20C93DC0C412390F0
:10174800290163850C14B387AC0363DB070C850D93
:10175800C20D93DD0D01894763E4B70D63550D0A8A
:101768003305A041131D0501135D0D41C204C1805D
:1017780063529D0B0965130505713305AD02B71753
:101788000040130770052380E704130780FA2380BD
:10179800E70432472396E70223800704334595027E
:1017A80042054181B640264496440649F259625A98
:1017B800D25A425BB25B225C925C025DF24D61617F
:1017C800828085EFB77489097D8993840480B3C4C6
:1017D800A4029167BE94EFC0214FB7E70100BD8412
:1017E80003A6073C83A6473CC5BDB7E7010085644F
:1017F80003AA473B93843431EDB5130A000095449E
:10180800CDB53E891DB73385AB40931C050193DCEC
:101818000C41A9BF0965130505713385AC02BDBF2D
:1018280063FEAB003305854133055503A9473344AF
:10183800850363C8870013150401A5B73305AC40B9
:10184800E5B76685EFC0617ED285EFC0E14EEFC097
:10185800A177931D050193DD0D41B307B941C20777
:10186800C183631AF9009307190063449001930731
:10187800F9FFC207C1839306FBFF13FBF60F4AC6A5
:10188800668DE3100BF82390F90075B7014519BF71
:1018980041112A83014E930E407E130F0019930FB6
:1018A800400663EB6E0A9308001913034006B378E9
:1018B8001503854E0D4FA14F337365020D891335FE
:1018C800150063E5BE0C1308F6FF794672984208C6
:1018D800135808013307C70213D61700BE073297FB
:1018E8006146B3F6C60213068070B386C602369701
:1018F800A166F58F42075D8FB717004083C6F702D0
:1019080093F60608A307D1000346F10083C6F70241
:1019180093F60608E394C6FE8346F10093F6F60FA5
:10192800F1DE930670052380D704930680FA23809E
:10193800D70423AA070383C6170393E60608A388D8
:10194800D702D8DB03C7170313670704A388E70286
:1019580023800704410182807D133368E3039308E1
:10196800E016630E08003368F3039308D016630883
:1019780008009378330093B818009388D816330872
:101988001E01131E0801135E0E0121BF6393E503B8
:101998000548638608000148630303002A88710824
:1019A8007298FD15131E0801C205135E0E01C18150
:1019B80009BF13F8150063F4BF007908D5B71338C9
:1019C8001800E5BF914763ECB702F9679387873C36
:1019D8008A05BE959C418287B717004003A7470B2D
:1019E8001345F5FF698F23AAE70A03A7070B698F39
:1019F80023A8E70A03A7070A798D23A0A70A8280EC
:101A0800B717004083A6470B1347F5FFF98E23AAA3
:101A1800D70A83A6070B558D23A8A70A83A6070A0A
:101A2800758F23A0E70A8280B717004003A7470BEA
:101A3800498F23AAE70A03A7070B1345F5FF45BFFC
:101A4800B717004083A6470B1347F5FF758F23AAE6
:101A5800E70A03A7070A598D4DB7B717004003A730
:101A6800470B498FEDB7B717004003D7870109C562
:101A7800D98D239CB700828093C5F5FFF98DD5BF1A
:101A8800B717004003D587004205418193770504C5
:101A980091EB9377F5013755E80113050580334538
:101AA800F50282809377050C130700046397E7001B
:101AB8009377F50137459C1CCDB72165130505D0F3
:101AC8008280B7F700E0C8439C478280B727004070
:101AD800C8C709472380E70011472380E7008280B1
:101AE800411122C406C62A84613F2947B307E5028B
:101AF800B2408D83B3D7870222449507B3D7E70254
:101B080037370040C207C1832316F700410182809E
:101B1800716541111305052006C6D937B73700404E
:101B2800130770F82381E7000D47A381E700130727
:101B38000004A380E70005472387E700B24041017E
:101B4800828037370040834727001A0593F7F70349
:101B5800C98F93F7F70F2301F7008280B73700404A
:101B680003C7170019C9D98DA380B70003C7070099
:101B7800136787002380E700828093C5F5FFF98DFE
:101B8800A380B7008280B73700402147B7360040AE
:101B980091E1828003C6B700E30CC7FE0505034642
:101BA800F5FFFD15C2052384C600C181D5B783C7DB
:101BB80085002145C18BD1E32D4541E303C70500CD
:101BC80089476318F706D841411106C683471700AD
:101BD800034707003285A207D98F4167130627FEFE
:101BE8006384C7046369F60005176382E7022390DC
:101BF800060029453DA0130647FE6387C70215174F
:101C0800E397E7FE95472390F600154629A0D147AC
:101C18002390F6005146CC4597200020E7802046C7
:101C28000145B2404101828085472390F600054670
:101C3800DDB72390060005458280828083C7850032
:101C480093F70702E9E7011122CC06CE26CA4AC853
:101C58004EC652C403CA050009482E848547631C32
:101C68000A0383A84500B284368903C8180083C8CC
:101C78000800BA89220833681801C168138318FE5E
:101C8800630468028D18630F18058D679387279082
:101C98006305F806A947F2406244D2444249B24972
:101CA800224A3E8505618280B6853285D1256384C6
:101CB8000900AD47CDB7D14763F42701B547E1BF68
:101CC80048445146A68597200020E780403B014ABA
:101CD80003A70188814761D3184355DF52850297CE
:101CE800814755BF79F7E3EBD7FC48440546A685FD
:101CF80097200020E780A038E1BF6244F240D24438
:101D08004249B249224A854705616F606009A14787
:101D18003E85828041677917630CE502411122C430
:101D280006C685472A84639AF50022852244B24074
:101D3800938501A741016F70504E89476396F5005E
:101D48008545EF90D06B75D1B24022444101828025
:101D58008280411122C42A844165938501A77D159B
:101D680006C6EF70904B372500001305C5D10588CE
:101D7800EF90706005C02244B240B7560020375536
:101D88000020938646BA41469545130545B541015D
:101D98006F70D03DB240224401454101828009C59F
:101DA80023A0A18801458280454582801147636C44
:101DB800A70679671307C73D0A053A9518414111E7
:101DC800AE8706C6B285028751476145639AE70028
:101DD80051461385C1A597200020E780402A014578
:101DE800B2404101828005476145E39BE7FE054615
:101DF8001385C186CDB705476145E393E7FE0546E0
:101E080013850187C9BF05476145E39BE7FC054684
:101E180013854187C9B715476145E393E7FC154624
:101E2800138581874DBF0945828011476368A704E0
:101E3800AA8779678A071307073FBA979C43411116
:101E480006C62E85828751469385C1A59720002016
:101E5800E780E022B2400145410182800546938532
:101E6800C186EDB7054693850187CDB705469385AD
:101E78004187E9BF154693858187C9BF0945828097
:101E8800411122C42E84938501A726C206C6AA84BE
:101E9800EF50D06D058905C1B757002083D7E7B744
:101EA800A285B2402310F4002244268592440146BC
:101EB80041016F60B046B240224492444945410115
:101EC8008280411106C6EFF04FD5BD4763F4A700E5
:101ED800EFF0AFD4EFF02FFABD4763F4A700EFF0AF
:101EE8008FF983D5A186B24003D5818641016F1051
:101EF800C03D411193962500AA852D4506C6972019
:101F08000020E780A0E2B2400145410182804111F2
:101F180022C426C24AC02A842E89B284AA8593067E
:101F280000200146254506C697200020E78000E0EE
:101F3800931629002686A285294597200020E78048
:101F4800E0DEB240224492440249014541018280C8
:101F5800011122CC06CE3714004026CA4AC84EC604
:101F680052C483447405034AB4058349840503496C
:101F78009405EFF00FC88347A40593F4F40F137A80
:101F8800FA0F93E71700230DF40493F9F90F137967
:101F9800F90FB717004003C7A705058B6DFF03D5D9
:101FA800C705A38D4705238C3705A38C2705A38B6D
:101FB8009704F2406244D2444249B249224A056138
:101FC800828041119397050122C406C6C1872E84D9
:101FD80063DD0700EF00103819C1EF0010312165EB
:101FE800218DB24022444101828093F7150013C528
:101FF8001500E5FB9397250163D00702EF30D10266
:10200800C93503C5418837F60200130606E089651D
:10201800EF1080040965E9B7939715010145E3D2EC
:1020280007FC03C54188130600649165EF10C002E0
:1020380011657DB7B7E5010079651D71494693853E
:1020480045401305C55C86CEEF00D06A11E101A0BA
:1020580037F700E0F9575CC7FD571CCB8566B7E733
:1020680000E023A0D7101306701010C3B8434146F0
:10207800B0C323A0D718B8C3010001001306C003DA
:1020880081454808EF00F060B75700209387071C88
:102098003ECA896793870780231CF100ED47A30197
:1020A800F1029307A0102312F102D1472303F10292
:1020B800A167938707E03ECEB72700009387A7EF75
:1020C800BEC4B7270000938767F1BEC689472304BB
:1020D800F102B5472308F102B72700009387A7ACA0
:1020E8003EDAB7270000938787F53EDEB7F507008D
:1020F800B72700009387A7EC81467000E1051945D2
:10210800BEC097200020E78060C2580881479946E2
:1021180070003E960346060085070507A30AC70018
:10212800E398D7FED24791C7035781018567637348
:10213800F70001A04808EF10802C11C101A0F6405B
:102148002561828041113725000022C41305A5FCB2
:1021580006C613844188EF1000272300A40029280D
:10216800034504002244B24037F60200130606E095
:10217800896541016F00506E411106C6B7170040CE
:10218800130770052380E704130780FA2380E70408
:1021980003C7F7021377A70FA387E70203C7F7025E
:1021A80013672700A387E702293B1305407E814771
:1021B8000147814605468545EFF08FEDB240014560
:1021C80041016F10A04B138541B88280411122C490
:1021D800B756002013F4F50F26C206C6938786BCAF
:1021E80013073400A381E70071771307F7EF2392F1
:1021F800E7001307A0FB2383E700B68499C52E8662
:10220800AA8513857700EFC0010F130674002244D6
:10221800B240938684BC92441376F60F85450145F7
:1022280041016F30B061411122C426C213F4F50F89
:1022380006C6938781C8130714002E862380E700FB
:10224800AA85254713852700A380E700EFC0A10AC8
:10225800930524002244B240138681C8924493F522
:10226800F50F1305703041016F8021404111C145C0
:10227800054506C6EFF02FFF371700408327870A6A
:1022880091668545D58F2324F70A2165EFF08FF3F2
:102298008D451165EFF00FF3EFF09F870145EFF0E3
:1022A8005F8A85450545EFF07F8BB240B7E700E0D0
:1022B8003707000423A0E7104101828037E50100B9
:1022C80041119D451305854106C6B13FB240410104
:1022D80071BF3D654111130505A606C6EFF00FFF56
:1022E800372700408347270093E717002301F700AB
:1022F800B240B7E700E0416723A0E71041018280C0
:102308003727004083472700C14693F7E70F23018B
:10231800F700B7E700E0B843B4C3C16623A0D718F5
:10232800B8C30100010082801387E1888347070052
:1023380093F7F70F99CB23000700138701A818C15B
:1023480003D7C1887D172390E5003E858280034727
:1023580005008147850793960701C18263E4B600AB
:102368003A858280B306F50083C60600358FDDB74F
:10237800411126C222C44AC006C6138941B82E8418
:10238800630825012E86AA85138541B8EFB0B1767A
:10239800A285138541B8653F22992300A9009305BA
:1023A80014002244B2400249138541B89244C20540
:1023B800C18141016FF02FFD3288239006008147CB
:1023C8009308F00F1303E00B130EA00B63E3B700A1
:1023D80082803307F50003460700834E1700050681
:1023E8001376F60F63951E03834E270063916E02E2
:1023F80003473700631DC701711642064182938562
:102408004700AA952390C60042856FB0D16EB29757
:10241800C207C18365BF41111305800406C6971022
:102428000020E780004E593D3131293BEF80014EB5
:10243800EF80C154D929A52C37E501009D45130526
:102448008541D53397200020E78020C7E5BF8280EB
:10245800828001112316C10003C681896C0006CE53
:10246800EF40206FF2400547A389E188056182802B
:10247800411122C406C62E84EF00D00337460F0050
:10248800130606243376C50222852244B2408145CC
:1024980041016F70C16083472500797106D622D447
:1024A80005476379F7003547638CE700B25022543B
:1024B80045618280014685450D45EF50F179FDB7AC
:1024C8008345C5000049231F01002EC6ED39B245DA
:1024D8002A869306E1012285C5358357E101F9D79C
:1024E800DD318355E1016935D1B7797193970501DC
:1024F80022D406D626D24AD04ECE52CCC1872E84BC
:1025080063DE070203C58189B125AA8411CD03477B
:1025180005009307000B6317F70083454500210565
:10252800EF40903B2685D1232165218DB25022545E
:1025380092540259F249624A4561828093F7150024
:1025480091CF03C5818937560020130686BE93852F
:102558004180EF50916A13451400C9BF93F70508ED
:1025680081CB41657D15EF802138134504087DBF77
:1025780093F7850085CB81572312F10023980188B2
:10258800239A0188239B018805472389E18883C60C
:102598008189416509464C007915EF405003134580
:1025A800840069B793F7050191CF4165130780252A
:1025B800814613064006D1457915EF5071691345D8
:1025C8000401ADB793F70502D5CF9389318903C7C5
:1025D8000900138A31893DEB1389C180034709003B
:1025E80083D701899384C18035CBC1692312F10057
:1025F8000147854781460546C9451385E9FF2316E6
:1026080001002313F100EF4040662AC421C103C62C
:1026180081899307A0052300F5004C001385E9FF85
:10262800EF40005D138981890DE585472300FA0095
:1026380083C70400034509001306006493B7170015
:10264800930500022380F400EF00102113450402D3
:10265800F1BDC9454800EF403028CDBF2312F10035
:1026680003C6818941654C007915EF40205879FDF2
:1026780085472380F9008347090093B71700230093
:10268800F900E9B793F705040145E38107EA4165D5
:102698007915EF80212503C58189056613060696FD
:1026A80093050004EF00501B1345040441B50111C4
:1026B8003725000022CC1305254F06CE13848189C7
:1026C800EF0070502300A4009305401F0945EF2038
:1026D8000049D1451D45EF20804893054006214516
:1026E800EF20E047930540063545EF2040477966DF
:1026F80013064644D5450145EF40A00285470D47DE
:10270800700091451305F0402304F100A304F10083
:102718002305E100A305F10002C6EF6091433000F4
:10272800854513058040EF60D14213069100854529
:1027380013059040EF60F1411306A100854513058C
:10274800A040EF6011411306B10085451305D04044
:10275800EF603140EF50404503450400EF4070758D
:102768007D55EF40E0097D55EF70002803450400D2
:102778008545EF00007EF2406244056182808280D8
:102788009387418A03D707006318A7002391B700EE
:102798002392C7002393D70082800111416706CE98
:1027A8009387418A791798C323A207001306F1007B
:1027B8008547854513055030A307F100EF70F16A8E
:1027C800F24005618280797106D619C5094763050B
:1027D800E500B250456182806C00EFF00FE5D5BF8F
:1027E80041119397050122C406C6C1872E8463DD73
:1027F800070003C54181B92E11C1C52C2165218D62
:10280800B24022444101828093F7150091CF03C55D
:10281800418137560020130646BF9385C189EF7062
:10282800F13713451400E9BF93F7850099CF83C7A3
:10283800418103D5418A13074006814629468545CB
:10284800EF70312F1345840065BF93F745000145AC
:10285800C5DB03D5418AEF80E10803C541810566E0
:10286800130606C89145EF00207F1345440049BF71
:102878008D476308F50091476301F50289476315A1
:10288800F50803C7250099476310F70803D74500E3
:1028980083D7418A631AF70609B703C72500954706
:1028A8006314F7069387418A83D60700416779172F
:1028B80003D5A5006384E6006F80010303D7E50014
:1028C800411122C406C62391E70003D705011384EA
:1028D80041812390A7002392E7000345040003D712
:1028E8002501096613060690A1452393E700EF002A
:1028F800A076034504002244B2400566130606C8C4
:10290800914541016F00407582803725000039717B
:102918001305857E06DE22DC26DAEF00D02A9384B2
:102928004181854705442380A4002308F10010084D
:10293800A947854513055030231EF100231A81004D
:10294800EF70B152138681819D4513056030EF7099
:10295800D1515008894513051031EF701151700895
:10296800894513052031EF70515037560020130662
:1029780006C0D5450145EF30D05A930500050D45F1
:10298800EF20E01D930500051145EF20401D70085C
:102998009145130570402304810023068100230814
:1029A800810002CE230A0100EF60B11A300085458C
:1029B80013050040EF60F1197000854513051040BC
:1029C800EF6031195008854513052040EF607118F4
:1029D8001008854513055040EF60B1177D55EF305D
:1029E80030627D55EF7040007D55EFF08FB6894716
:1029F8002304F1008D472306F10091472308F100D5
:102A080003A701869387018683C7470002CE700813
:102A1800D14501453ACA230CF100230E810002D0AA
:102A280002D202D402D6EFF06FB8300085450545D2
:102A3800EFF0CFB7700085450945EFF02FB71008C4
:102A480085450D45EFF08FB6500895451145EFF0D7
:102A5800EFB541679387418A791798C323A2070086
:102A680013850181EFF0AFB303C504008545D52177
:102A7800F2506254D25421618280011122CC138415
:102A8800418A26CAAA84035504002E862315B1005C
:102A980001478146ED4506CEEF40201D2AC615C1E7
:102AA8000356A100A68597100020E780405D0355D6
:102AB80004002C00EFF0CFBC09C5ED452800EF401D
:102AC800A061F2406244D2440561828023AC05FED5
:102AD8001C4191E7010001000CC18280BA8703A75D
:102AE80087FF6DFF23ACB7FE82801DC18346E5FFDB
:102AF8001307F00F9147639EE600411106C6972021
:102B08000020E780E0FAB24081473E85410182809B
:102B180095473E85828001E9014582800145B240A2
:102B2800224441018280411122C42A8421054205A0
:102B38009305D004418106C697200020E780A0EDC8
:102B480071DDFD5723200500231285002303F500BE
:102B58002105F1B71387C18A1C43411122C426C23B
:102B68004AC006C601440149BA8489E7A165992D7E
:102B78000DC401A803C7E7FF6318A7021DC8A16514
:102B8800C92E9840832784FF6317E40223A6F18A9D
:102B9800FD57232C04FE230FF4FE2285B240224465
:102BA800924402494101828011E03E8983A787FF50
:102BB8006DBF3E84E5BF232CF9FED9BFA9C94111D9
:102BC80022C406C62A849747002083C7F7E22E85C9
:102BD8006368F400193F0D45B240224441018280E8
:102BE80083A785FF99E703C7E5FF9307F00F630500
:102BF800F700E53D1545CDB7238F85FE1385C18ABE
:102C0800F13522852244B240A165410199A61545B6
:102C1800828023A6018A82809387018C9C4399E352
:102C28003E85828003D727006316B70003C70700D5
:102C3800E308A7FEDC47E5B74111939705014AC0B1
:102C480006C622C426C2C1872E8963DE070019374B
:102C580011C1613D21653345A900B2402244924427
:102C6800024941018280AA860145E5D901443D47D0
:102C7800B3578940858B95CB9387818B8443BD4718
:102C880091E28147A2978E070545BE9433158500CA
:102C9800131405019C40C8404180829723A004007A
:102CA80023A20400334524014DBF0504E312E4FCCC
:102CB8000144CDBF97470020938747D09C534111CB
:102CC80022C406C61384018295C7829723A0A182D5
:102CD8000840B74703009387D73F3305F502B7A7E6
:102CE8002600938737ECB24022443E9523A0A18268
:102CF8004101828097470020938707D018409C4B5A
:102D0800BA9723A0F182E9B79387018B904397463E
:102D1800002083C676CE814713F7F70F6361D70A81
:102D2800174700200347F7E2914763E1E70A97470F
:102D3800002083C7A7E6918BD1EB0111680006CE6E
:102D480022CC26CAEFC0B0557D576308E50EB247BE
:102D5800174400200344B4C76374F40C9747002059
:102D6800938787C9C4479747002083C767C6638688
:102D7800E406858BA9CFD147B384F4026372940A21
:102D880097100020E7802055B24763F3F400A68728
:102D9800174400200344B4C3818F3384A7009747A6
:102DA80000209387A7C18387470163CE0702B7072F
:102DB800C0A8636AF402B70740573E942DA0850760
:102DC8001397170032970357E7FF39D78280930785
:102DD8009002B384F402858055B7E207E18763D691
:102DE80007043304854003D5618B97100020E780E2
:102DF800002719E03704C0A897470020938707BC2D
:102E0800DC532285829709ED97470020938707D4E2
:102E18009C4F99C7EF200151EF20D134EF20E144B6
:102E2800F2406244D24405618280E37C85FAB707A8
:102E3800C0A8338487402A947DB79747002093879A
:102E4800A7BBDC47E38EA7FC17470020130707B78B
:102E580083464701BA84858A9DC6514433848702D4
:102E68009747002083C7B7B6E3FC87FA971000207E
:102E7800E78060469747002083C777B51D8C2A9462
:102E8800838744011DB713049002338487020580A9
:102E9800C1BF2A9609E582800505A30FB5FEE31D8B
:102EA800C5FED5BF81473307F5000307070019E3BF
:102EB8003E8582808507C5BF01112E8626CAAA8451
:102EC800131506019305F004418122CC06CE32C6C3
:102ED80097200020E78020B42A8419C53246A685A9
:102EE80097100020E780A0192285F2406244D2445E
:102EF8000561828081476314F600054582803307A7
:102F0800F5008507B386F5000347070083C6F6FF7B
:102F1800E383E6FE014582809307F6FFBE952A9675
:102F28006313C5008280FD1583C715000505A30F2F
:102F3800F5FEFDB7814711E9014582803307F500A9
:102F480003470700E31AB7FE8507E319F6FE0545B0
:102F580082809747002083C737AA637FF5001387CD
:102F6800018B9317150008433E9583570500DD8DA7
:102F78002310B500014582800D458280FD5701115F
:102F8800174700202320F7A89387018C22CC804381
:102F980026CA4AC84EC652C406CE56C22A89814499
:102FA80097490020938989A1174A0020130ACAA4C7
:102FB800184481476374E900B307274103A749020E
:102FC8001CC409CB0327CA0063F6E7001747002093
:102FD800232AF7A2A1E3835524009DE55C44A1E4DC
:102FE80023A0F18C832AC400228597200020E78043
:102FF80020AC568455FCF2406244D2444249B2495E
:10300800224A924A056182800345040099375C4050
:1030180081CB1CC483572400F1D3A2844044D9BF78
:103028001C44CDDFC5BFDCC475BF9747002083C7EC
:10303800B79C6371F5021387018B9317150008433A
:1030480093C5F5FF3E9583570500FD8D2310B50008
:10305800014582800D4582809747002083C7D79914
:103068006364F50001458280411122C426C24AC02A
:1030780006C62A842E89B284EFF01FBA01C504C59A
:1030880005452DA0936504F0C205C18141459720EF
:103098000020E78040980DE197470020938707922A
:1030A8009C5B81C7A285114582970145B2402244A5
:1030B80092440249410182809387018C9C438DE3AD
:1030C80023A0A18C85472326050004C523112501CB
:1030D80023008500A300F5002322050055B7BA8711
:1030E800D84775FFC8C7F9BF45C539715AD0138B82
:1030F800818B22DC26DA4AD84ED652D45ECE66CAF6
:103108006AC86EC606DE56D262CC3689328AAE8965
:10311800AA8401445A8DB94D854BF94C03270B00FD
:10312800131C3400937AF40F62971C43A9EF13B56C
:10313800FA0013451500B3978B0063F65D019307FA
:1031480014FFB397FB0093950701C1815286293775
:103158001DC983270D000145E29784C323A23701C7
:103168006304090023005901F2506254D2544259B1
:10317800B259225A925A025BF24B624CD24C424DDF
:10318800B24D216182800504E31A94F92145E9BF13
:1031980009458280411122C426C24AC006C6AA84B3
:1031A8002E893284553DCA852685EFF0FFA609C9C8
:1031B80040C10145B2402244924402494101828003
:1031C8002145CDBF411122C426C24AC006C6AA84E1
:1031D8002E89EFF07FA42A8419C123110500CA851E
:1031E8002685A135014511E01945B2402244924493
:1031F8000249410182807547636BA7041387818B5D
:103208001443411126C293143500A696944222C451
:1032180006C6AA873A84094595C613B5F700394703
:10322800134515006373F700C5178545B395F50079
:10323800C205C181413F1C400145A69723A0070054
:1032480023A20700B24022449244410182800945EA
:103258008280411106C6EFF03F9C09C50845B2407F
:10326800410182800145E5BFF54763EDA7049387D7
:10327800818B9C4313173500BA979843894721C718
:10328800011126CA06CE9334F50022CCB94793C45F
:10329800140063F3A700451505443314A400420441
:1032A80041802EC62685A2856D378947324609C5D5
:1032B800A285268555338147F2406244D2443E8533
:1032C8000561828089473E858280239AA18A239B53
:1032D800B18A8280411106C623AEA18A0295B24006
:1032E8009737002023A4A77201454101828099479E
:1032F80063E9B7008A05973700209387E771BE9581
:1033080088C18280411106C622C426C2EF70216F8F
:10331800714681451735002013050570EFF07FB71A
:10332800173400201304446D1306000222858145DA
:10333800EFF03FB623A0018C23AE018A9737002017
:1033480083C7876913D527008D8B3E958D47330535
:10335800F5029947930510109384418C3505137530
:10336800F50F2301A4003305F5021305050F971087
:103378000020E780406A23ACA18A83472400130514
:10338800050F88C08A073E9523A8A18AEFF07F8899
:10339800A926834714009840170600001306068ADA
:1033A80093962700BA9690C293862700850793F7CD
:1033B800F70FA300D400B24022448A07BA9790C3FB
:1033C8009244410182809737002083C7F7621737FC
:1033D80000200347876263F1E7021387418C184393
:1033E8009386170017360020A308D6609396270007
:1033F800369708C33E8582809307F00FE5BF1C41CE
:103408006387071441777D8FB706002089476311CA
:10341800D71403574500630D0712411122C41946FA
:103428002A849305F00F590506C6EFF0BFB005478B
:103438008D476309E5101306C00381451735002041
:103448001305C557EFF0FFA41306C003A28517356F
:1034580000201305A55697100020E78040C21737B3
:10346800002003576756973700209387275519E799
:1034780013070020973600202398E65417370020BA
:103488000347A75411E7054797360020238FE652D4
:10349800173700200347775311E76D479736002009
:1034A800A385E652173700200347475211E715470F
:1034B80097360020238CE650173700200347175112
:1034C80011E7054797360020A382E65017370020FA
:1034D8000347175019E703C7070197360020A38948
:1034E800E64E173700200347874E11E751479736B6
:1034F8000020238EE64C173700200347074E19E7B4
:1035080013078002973600202389E64C17370020DE
:103518000347F74B19E71307D00297360020A38813
:10352800E64A0347D40111E7094797360020A385E7
:10353800E64A9C5791C78297973700202391A74C5A
:10354800D1338147B24022443E8541018280894778
:103558003E858280011122CC06CE2A842EC6EFF049
:103568006FF5B245F240818D33A5A50222956244DC
:103578001375F50F05618280011122CC06CE2A84CD
:103588002EC6EFF02FF3B245F240818D33A5A50288
:10359800229562444205418105618280011122CC55
:1035A80006CE2A842EC6EFF0EFF0B245F240818DA8
:1035B80033B5A502229562440561828097370020C1
:1035C8009387C73F985725C3411122C426C206C610
:1035D800BE84029717370020035767422A8441C7E1
:1035E800BA876373A700AA87C207C183BA866373C1
:1035F800E400A286C206C182958F51476355F7063B
:10360800DC5491C382978547173700202304F75469
:10361800EF208121973700202393873EB240224430
:103628009244410182809737002083C7A7529DE7C3
:10363800973700209387875183C79700850793F7AB
:10364800F70F17370020A307F750A18B9DC78547B1
:10365800173700202310F7506F20C122973700201A
:10366800A38A074ED5BF9737002083C7A74EDDD75B
:103678002244B24092444101C5B782809737002066
:103688009387C733D857011122CC06CE3E8401C791
:103698002AC60297324511CD23A4A18C1715002004
:1036A8001305E5C4EFF01FC3F2406244014505610C
:1036B80082808307440163DD07009737002023A930
:1036C800073497170020938727BD23A4F18CF9B7F7
:1036D80097170020938727C0CDBF011122CC17343C
:1036E80000201304A42D084406CE26CA19E5054572
:1036F800F2406244D244056182805C58EDDB185C7C
:103708007DD77000854582971844B247E301F7FEDC
:103718008357C400173500200345252B9305E00483
:103728003305F502973400209384042D4205418126
:1037380097100020E780202E17370020232CA72C75
:103748005DD59737002083D72728173600200346F2
:10375800C6273306F6029305F00FEFF08FF3D04C2F
:1037680008449737002083D7272608C297350020BA
:1037780083C5A525B385F5021C5C89818297C84C51
:1037880097100020E780C03201459737002023A317
:103798000728B9BF411122C417340020130404229A
:1037A8001C4426C206C6973400209384E424ADCB7B
:1037B8001C5CBDC7DC4C8DE78357C400173500205F
:1037C8000345A5209305E0043305F5024205418130
:1037D80097100020E78020249737002023ACA722E9
:1037E800C84C1DCD9737002083D7071E17360020F9
:1037F8000346A61D3306F6029305F00FEFF06FE9B6
:10380800D04C08449737002083D7071C08C2973547
:10381800002083C5851BB385F5021C5C89818297CE
:10382800C84C09C997100020E780802897370020E6
:1038380023A2071EB24022449244014541018280DE
:10384800011126CA973400209384041B22CCC04C53
:103858004EC652C456C206CE4AC8AA8AAE89328A11
:1038680031EC17390020130969158327890099E37A
:10387800A94471A08357C900173500200345E514F2
:103888009305E0043305F5024205418197100020B5
:10389800E78060182A8441C583274903C9C397353F
:1038A800002083C58512173700200357E711B38519
:1038B800E5022A86032589008981829791451307A5
:1038C800A005898193972500A29783C60700639571
:1038D800E60483C61700639E560385058A054E864F
:1038E800A295528597000020E7806079DC4C8144DE
:1038F80063878700228597100020E780601BF240CD
:10390800624426854249D244B249224A924A056114
:10391800828083D5270075B7DC4CE38B87F422853A
:1039280097100020E780C018A1B797370020938729
:10393800E708984729CB9C5FB9C785466315D50426
:10394800411122C4173400201304040B504C06C63E
:103958001DC69736002083D626079735002083C5D5
:10396800C506B385D5023A8589818297484C971058
:103978000020E780E0139737002023AD0708B24006
:103988002244410182808280973700209387C706AE
:10399800D84F011122CC26CA4AC852C406CE4EC6F8
:1039A8002A89AE8432843E8A35E797390020938984
:1039B800E90083D7C90017350020034505019305A1
:1039C800E0043305F5024205418197100020E780A5
:1039D80080049737002023AFA7022A8611E92945DA
:1039E800F2406244D2444249B249224A0561828087
:1039F80003A5890005C183A7490389CF973500200E
:103A080083C5A5FC17370020035707FCB385E502DB
:103A1800898182970325CA0191461308A005FD559F
:103A280093D72600C207C183139727002A97034616
:103A38000700631B06038348170003562700639398
:103A48002803B306D64063CD960085078A073E95BE
:103A58002686A28597000020E7806062014549B765
:103A6800A300B700B2866DBF173600200356C6F50F
:103A78009735002083C565F5B385C5023386960062
:103A88001106E3EEC5F413863400719A1106B29656
:103A980023000701A30027012311D7007DB797371B
:103AA8000020938767F5D44F8DCE91471306A00564
:103AB8009305F00F89838A07B69703D7270003C5B4
:103AC800070009830A073697631DC50003451700D9
:103AD8006316B500035727002391E70083D7270013
:103AE800D1BF01458280011106CE2EC6EF8060004D
:103AF80001C9B245F2400355250005616FB0C035D4
:103B0800F240494505618280A38A018E238A018E8D
:103B180023AE018C23A0018E23A2018E23A4018E43
:103B280023AC018C23AA018C97370020938787F058
:103B38003707B40098C33747A000D8C33707100029
:103B48009306070A94C7B7065000C106D4C7930660
:103B580007054107D8CB3707D007410798CF370764
:103B68000F0098D337C70700130707B8D8D34167A2
:103B780094CB93060701130717F8D8D7417723AEDC
:103B8800070094D798DB8280011126CAAA842145B0
:103B980022CC06CE2E8432C636C43AC2EFE0BFF736
:103BA8001DC9A24612473246930700FD2300F500BF
:103BB8009947A30095002301F5002303D500A3032B
:103BC800E5002312C500AA8522856244F240D2444A
:103BD80005616FE0BFFEF2406244D2440561828015
:103BE80023AEA18C828023A0A18E828023A2A18EE5
:103BF800828023A4A18E8280011122CC4AC806CEDD
:103C080026CA2A890144B30489006368B400F240D3
:103C18006244D2444249056182802EC6EFF08F8902
:103C280093170501C183A183B2452380F40093074C
:103C3800140093F7F70F850463F9B700CA970904CE
:103C48002380A7001374F40F7DBF3E847DBFC16736
:103C5800173500200355A5E1FD176302F502411150
:103C680003C681989385C18E06C6EF705052B24044
:103C7800FD5717370020231CF7DE41018280828020
:103C880009C925151375F50F1335850E134515004C
:103C980082800145828023800500F94763E2C708D6
:103CA800797122D426D24ECE56CA5AC806D64AD0E0
:103CB80052CC5EC63684B289AE8A2A8B814463FFB1
:103CC8003405B307940003CA070013891400137955
:103CD800F90F63050A04B3072A0163C1F904B3079E
:103CE800240183CB07005E85613F0DC99307FAFF66
:103CF8002380FA0063906B03130519002295B250D4
:103D0800225492540259F249624AD24A424BB24B67
:103D180045618280D29493F4F40F55B70145C5B735
:103D280001458280411126C2AE8422C49737002003
:103D380023A6C7D49737002023A0B7D497370020ED
:103D480023AAA7D22A8441469305F00F26854AC0A4
:103D580006C60549EFF00F9E631E2503973700201E
:103D6800938787D0884BC145413D41469305F00F65
:103D78002285EFF02F9C85446316950222449737DD
:103D88000020938767CEB24092440249C847C14594
:103D980041019DB5414681452685EFF0AF99E3166F
:103DA80025FD6DBF414681452285EFF0AF98E307B9
:103DB80095FCB2402244924402494101828041115B
:103DC80022C426C22E84AA84130600028145173510
:103DD8000020130565C906C6EFF0AF8B97370020A2
:103DE800A38597C8A3858198EFB08008854719C136
:103DF80081474945B2402244173700202306F7C6B9
:103E0800924441018280814781CD19C98547631B4E
:103E1800F50083C7550093E707FCA382F5008547A3
:103E28003E85828089476317F50083C7550093F75D
:103E3800F703E5B70D478547E314E5FE03C75500CB
:103E48001377F70313670704A382E500D1BF8147FF
:103E58008DC105C103C755009306000C854713772C
:103E6800070C6308D700930600048D476303D70047
:103E780089473E858280411122C4005D06C626C25C
:103E88001DC8AA84085009C597100020E78040C2C1
:103E9800485009C597100020E78080C1085409C51B
:103EA80097100020E780C0C0228597100020E78087
:103EB80020C023AC0402B2402244924441018280D3
:103EC80009ED9737002083C747BA17350020130537
:103ED80025BB81CB1385C18C828017350020130543
:103EE80025BA828017350020034525B88280973788
:103EF8000020938767B7C847828097370020938749
:103F0800A7B6884B8280973700209387E7B5DC4BAC
:103F18008843828097370020938707B5D84B1C4386
:103F280085071CC317350020034535B49307F00FE8
:103F38006305F50091656FF0CF818280011122CC75
:103F480006CE2E8432C6EF70104A9147B245631FE1
:103F5800F5009387818E9C438DC303A30700630EEE
:103F6800030022856244F240056102839387018E33
:103F78009C4381C703A34700DDB7F240624405456F
:103F880005618280011122CC2A840355450006CEA2
:103F980026CA4AC84EC6EF70502D35C52A898344B3
:103FA80005008349C500C13D4A85EF80501D035572
:103FB8004400EF70D03E83C7418FB1CB639997041B
:103FC80083C5518F2685EFF01FB219E1238A018E30
:103FD80003554400EF7030419147631FF5000357C4
:103FE80044009737002083D787A86317F700FD5749
:103FF80017370020231DF7A6F2406244D2444249F5
:10400800B2490561828081499304F00F6DB7930727
:10401800F00FE38FF4FA8346640003564400034527
:1040280024004E87A685EFF03FB65DB779715EC66E
:10403800AA8B2E8552CC56CA5AC806D622D426D266
:104048004AD04ECEAE8A328B368AEF7010226DC1BE
:10405800045D2A89F1CC9C50614599C3130540033E
:104068009C5481C751054205418163050A007105C9
:1040780042054181DC5081C7590542054181EFE085
:104088009FA92A8455C561468145EFE09FE097398D
:10409800002083C9299D6394090083490900930777
:1040A80000FD2300F400A947A30074012301F400D4
:1040B800230364018C50231254011305840191C910
:1040C80008C47146930A440397000020E78020FB48
:1040D80056858C5491C948C45146930A45019700A6
:1040E8000020E780C0F95685630C0A0008C87146AD
:1040F800D285930AC50197000020E78040F85685CD
:10410800CC5099C548C8594697000020E78020F749
:10411800A2854E85EFE09FAA2254B2509254F249EC
:10412800624AD24A424BB24B4A8502594561A1B311
:10413800B250225492540259F249624AD24A424B2E
:10414800B24B4561828001114EC6AA892E854AC8A4
:1041580006CE22CC26CA2E89EF70301131C597348D
:10416800002083C4249099E0834405001945EFE0BA
:104178009F9A2A8415C981451946EFE09FD1930774
:1041880000FD2300F400B947A30034012301F40023
:1041980023122401A2856244F2404249B24926858D
:1041A800D24405616FE09FA1F2406244D244424983
:1041B800B2490561828039715ECEAA8B2E8526DAD6
:1041C8004ED652D456D25AD006DE22DC4AD8AE8415
:1041D800328BB68A3A8ABE8942C6EF70100931C955
:1041E8002A894145EFE03F932A8421C5414681450C
:1041F800EFE03FCA173500200345C58619E103459E
:104208000900930700FD2300F400BD472301F400D3
:10421800B247A30074012312940023046401A30489
:10422800540123054401A30534015CC4A285EFE0D1
:10423800FF98F2506254D2544259B259225A925AB3
:10424800025BF24B21618280797126D2AA843945BA
:104258004AD04ECE06D622D42EC6B2893689EFE091
:104268009F8B21C1B2459307000D2310F500B1477C
:104278002A842312B5002301F500CE8519051946B5
:1042880097000020E780A0DF23062401A28522549E
:10429800B2500259F24913F5F40F925445616FE098
:1042A800FF91B250225492540259F24945618280DA
:1042B800172700200347777B9307F00F630DF70656
:1042C800411126C2AA84394522C406C64AC0EFE075
:1042D8009F842A8439C9930700FD2300F500A300B1
:1042E80095002301050097250020938565790D0524
:1042F800194697000020E78080D817290020130965
:10430800A97683578900A285172500200345F575EE
:104318002315F400834719002306F4002244B24011
:104328009244024941016FE07F89B240224492449D
:104338000249410182808280011156C2AA8A314510
:1043480026CA4AC84EC652C406CE22CCAE84328A89
:10435800B6893A89EFE02FFC29C92A842685EF70AF
:10436800C0701DCD03450500930700FD2300F40030
:104378009D47A30054012301F40023129400231342
:1043880044012314340123152401A2856244F24018
:10439800D2444249B249224A924A05616FE01F82DB
:1043A800172500200345756CC1B7F2406244D2441A
:1043B8004249B249224A924A05618280397162CCE7
:1043C8002A8C594526DA4AD84ED652D456D25AD0D3
:1043D8005ECE06DE22DCAE8432C636C4BA8B3E8B95
:1043E800C28A468A8359010403494104EFE0AFF2C7
:1043F80035C53246930700FDA2462300F5009547D0
:10440800A301C500A30085012301F5002A841946EC
:104418001105A9C2B68597000020E78040C623068B
:104428006401230A24012315740123175401231856
:10443800440123193401A2856254F2504259B259F9
:10444800225A925A025BF24B624C2685D254216161
:104458006FE0CFF68145EFE0DFA3D1B7F2506254A9
:10446800D2544259B259225A925A025BF24B624CC8
:10447800216182809727002083C7275F8DCB411158
:10448800AA8519461385C18C06C697000020E780C7
:1044980000BF9385C18C172500200345055DEFF00B
:1044A8009F96B2401385C18C41016FA0301D014514
:1044B8008280411106C622C426C21727002003475E
:1044C800D75A9307F00F6308F704AA842945EFE049
:1044D8008FE42A8429C1930700FD2300F500A14732
:1044E8002301F500A3009500972700209387C7575D
:1044F80083C727009385C18C1105A30FF5FE1946C4
:1045080097000020E780A0B7A28517250020034563
:10451800D555EFE0AFEA1727002003472755854711
:104528006315F7029387418E9C4381C79C4791C3CB
:1045380082972244B24092445D6603C5819813066F
:104548000670914541016FE0FFC4B2402244924495
:1045580041018280797122D406D626D24AD04ECE25
:1045680052CC094445C92A89035505002E8A51446D
:10457800EF70A04FAA8459CD83C7B198FD1793F760
:10458800F70F054749446377F7080347C500A14774
:104598006314F70063100A089C5C4544A5EF916515
:1045A800938545711305C00297000020E780A04657
:1045B80088DCAA894D4439CD1306C0028145EFE055
:1045C8005F8D835709009386490036852391F9004A
:1045D80071469305490036C697000020E78020AA57
:1045E80089472380F90003C5C400B2460356090071
:1045F800611583C5819813351500EF90D0522A8430
:1046080063060A00D2852685EF80806201C426856C
:10461800EFF07F862285B250225492540259F24913
:10462800624A4561828083C7B198FD1793F7F70FF7
:1046380005476378F708894751C6011122CC26CA75
:104648004AC84EC652C406CEAA89368AB2842E8972
:10465800EF70A0412A84D14729C9485509C5970058
:104668000020E780E044F1452685EFE0FF8448D448
:10467800CD4705CD8346C40021478147639FE600A7
:10468800630D0A000347A50103560501930625019A
:10469800AA854E85EF70B051AA8703474400630F7F
:1046A8000900136767002302E400F2406244D24421
:1046B8004249B249224A3E85056182801367470014
:1046C800DDB7C9473E858280E14763EBA70097279E
:1046D80000209387273606053E95035505008280FE
:1046E80041657D158280011122CC2A842E8526CA37
:1046F80006CEAE84EF7060370DCDB7470F009387B5
:10470800F723094563E2870281450A854146EFE0C0
:104718004FF8A685231081000A8541802301810076
:10472800A3010100EF909022F2406244D244056157
:1047380082804945D5BFA384A19882806F90703745
:10474800797152CC2A8A328522D426D24AD04ECECA
:1047580056CA5AC85EC606D662C4AE8BB28A368BB3
:10476800BA843E89C2894684EF70203015C92A8CE4
:1047780063140A0213774B008347450015CF93E76C
:1047880027012302FC008DEC631C0902639A0902CD
:1047980005E8ED9B2302FC00832B8C03639F0B062B
:1047A800B250225492540259F249624AD24A424BB8
:1047B800B24B224C45618280F59B93E70701D1B744
:1047C80093E747002302FC0001CC1C484146A28520
:1047D8002324FC0213058C0197000020E780208A1F
:1047E80063910B02D5D80325CC0209C59700002098
:1047F800E780002CF1452685EFE00FEC2326AC027C
:1048080061BFE30B09F80325CC0209C59700002016
:10481800E780002AF1454A85C5B79DC483A70B02E6
:1048280099EB916593853571714597000020E78074
:10483800801E23A0AB0203A50B0219C57146A685ED
:1048480097000020E780A0836388090283A74B02B2
:1048580099EB916593852571594597000020E7806C
:10486800801B23A2AB0203A54B0219C55946CE856E
:1048780097000020E780A0801DC483A78B0299EBD6
:10488800916593851571514597000020E780A01820
:1048980023A4AB0203A58B0219C55146A28597F044
:1048A800FF1FE780C07D2254B2509254F249B24BA8
:1048B800224CCA865A860259424BD6855285D24A1C
:1048C800624A45616FF08FF6011126CA52C406CEBE
:1048D80022CC4AC84EC62A8AAE84EF70001925C574
:1048E800AA893945EFE02FA32A8431CD1729002062
:1048F800034949176314090003C909009307000D08
:104908002310F400AD472301F400938569001305D3
:104918003400194697F0FF1FE780607693F714007C
:10492800858085882306F400A30694002315440196
:10493800A2856244F240D244B249224A4A85424999
:1049480005616FE0AFA7F2406244D2444249B249E0
:10495800224A056182809387418D884301CD4111A8
:1049680006C697000020E780A014B24023AA018C55
:10497800410182808280011106CE22CC26CA4AC813
:104988002EC6EF70800E39CDB24517290020034995
:10499800690DAA840CD56314090003490500414533
:1049A800EFE06F972A841DCD9307000D2310F500C3
:1049B800A5472301F50083C75400938564001105BA
:1049C800A30FF5FE194697F0FF1FE780406B9C5434
:1049D800A285F2405CC46244D2444A8542490561DA
:1049E8006FE0CF9DF2406244D24442490561828023
:1049F800797122D406D62A842EC6EF7000070DCD11
:104A08008346C5001147AA8749456393E6029C5F20
:104A1800B24599C383C567010808EF80602A979655
:104A280000009386E6AF100889452285EF70F01CD8
:104A3800B2502254456182805145DDBF83C7B19889
:104A4800FD1793F7F70F0547637AF704894721CADB
:104A5800411122C426C24AC006C6B2842E89EF700C
:104A6800C0002A84D14705C563080900834745006B
:104A780093E727002302F5004146A6851305840124
:104A880097F0FF1FE780A05F9C481CD48147B24085
:104A98002244924402493E8541018280C9473E85AD
:104AA8008280797122D406D62A842EC6EF60F07BE4
:104AB80001CDB2452285230EB1006C08EF80C013EA
:104AC800B2502254456182805145DDBF6F70600746
:104AD800C1671387E7FF6394E5029387018E9C43C0
:104AE80091EB494582804945B240224492440249AB
:104AF8004101828003A30700E30503FE02834111FD
:104B080022C426C24AC006C6FD172A892E84B2844A
:104B18006395F5029387018E9C4391CB9C4381CB8F
:104B2800829711E5238A218FA38A918E75BFA68566
:104B38004A85EFE05FFB4DF9F5B72E85EF60F0721F
:104B48005DD1834705000D45E39027FB228522446C
:104B5800B2400249A685924441016FA0E02FE14787
:104B680063E8A70441677D1789476384E504411119
:104B780022C426C206C6C547AE842A84631AF50035
:104B88001305C0033385A50242054181EFA0C03457
:104B980013151400172400201304C4E92295B24009
:104BA800224423109500814792443E85410182802A
:104BB80089473E858280011106CE2AC6EFE0DFF4E0
:104BC800EF100007EF00A072EF50711132459727E0
:104BD8000020938767E9130700F02391E7002382F9
:104BE80007007D5793878198A380E7002380A7005B
:104BF800F240954505616F5090095D7193970501E5
:104C0800CAC086C6A2C4A6C24EDE52DC56DA5AD83C
:104C18005ED662D466D26AD0C1872E8963D0074C2B
:104C280003C58198EFD01FF38964416A856A797B4F
:104C38002A84938BD4007D1AA50A691B15E0216587
:104C48003345A900B640264496440649F259625AAB
:104C5800D25A425BB25B225C925C025D61618280E7
:104C6800834704001307200A639DE70003552400C7
:104C7800172C0020034C7CDF2286D285EFF00FAC86
:104C88003DAA1307100903CC91986397E716834749
:104C980014001547639EE7002285EFF0AFAE22852A
:104CA800EFD0BFE403C58198EFD0DFEA2A8479B753
:104CB80039476399E71603554400631B55050C44AF
:104CC80083C90500639D0900850591C91946172503
:104CD80000201305E5DA97F0FF1FE780403A172711
:104CE8000020034767D885476318F710638A0900CF
:104CF80097270020238A07D64E85EFF06FDB45B74C
:104D08008947172700202301F7D6EFA0E01641BFF7
:104D180093872400631AF50683298400638E090C9F
:104D280083C709008DE383C7290003C71900A207B9
:104D3800D98F17270020231DF7D283C739001727DB
:104D48000020A303F7D2172700200347E7D189479C
:104D58006314F70A83C7090081CB972700202385AE
:104D680007D003C5090051BF8D479725002083C58B
:104D7800B5CF172500200355A5CF172700202305F9
:104D8800F7CEEF50C073F1BF938754006318F50056
:104D98001C4403C50700EFF0CFF111B7B307650155
:104DA800C207C1831147636FF7009387418E9C4305
:104DB800E38707EE9C43E38407EE22858297E3109E
:104DC80005EE1DA89387B400631FF5009387C18D76
:104DD8009C43E38607EC9C43E38307ECA285138599
:104DE800B4008297E9BF9387C4006310F5021C449E
:104DF80083C70700E38507EA9307F00FE301FCEA9E
:104E0800A2856285EFD09FDB71BD9387E400E3152F
:104E1800F5FE9387018E9C43E38307E8DC43A28574
:104E2800E9F3B5BD3D476397E70403554400E30242
:104E380075FF93879401E30EF5FC93873401E31D16
:104E4800F5FA9727002083D787C2639E4701938787
:104E5800018E9C43E38507E4DC43E38207E4A285F3
:104E680013853401BDBF9387818E9C43E38907E294
:104E78009C43E5B71307E003E390E7F88347240072
:104E880005476396E70E83476400138D418DF1E370
:104E980083270D00D5CB03CC0700A1490345740037
:104EA800930C8400E685EFE09FFA83474401A3034F
:104EB800A400835804010358E400035744002A86D9
:104EC800034534003EC283572401E686E2853EC08E
:104ED800CE87EFF0AFCE8347340095E7DD478358A0
:104EE80004010358E40083467400835544003EC21D
:104EF800835724013EC06687CE8705466285EF60EA
:104F08001064A301A40083270D0081C71145EFF0A9
:104F18009FA403C5418FE30405D883C5518FEFE0F3
:104F28009FBCE30E05D68346340093071003638ABB
:104F3800F600035644004E8783C5418F3685EFE05F
:104F4800BFC4238A018EA1BB172C0020034CFCB1DF
:104F5800A9B79387418E9C43172C0020034CFCB0C3
:104F680091498DDFDC439DDB0145829705BF2947C9
:104F7800639DE70883476400138D418DADEB83275C
:104F88000D00ADC303CC0700A14903457400930C81
:104F98004401E685EFE0BFEB83470402A303A400C6
:104FA8008358C4010358A401035744002A860345C3
:104FB80034003EC28357E401E686E2853EC0CE87D0
:104FC800EFF0CFBF834734009DFFDD478358C4010E
:104FD8000358A40183467400835544003EC2835796
:104FE800E40109BF172C0020034C3CA871BF93872C
:104FF800418E9C43172C0020034C3CA79149D1D7E4
:10500800DC43C1D70145829749B70947639DE7004B
:105018009387C18D9C43E38407C8DC43E38107C8B9
:1050280022858297ADB92D476399E7009387C18D93
:105038009C43E38607C69C47D5B70D476397E700AF
:1050480022868D450355440015B919476395E7062F
:105058009305610113051031EF5061532C081305B6
:105068002031EF50C1520356640083578101035524
:10507800440063E8C700835684000357610163F75F
:10508800E60093050002EF90306411B96374E600FE
:105098002313E40063F4D7002314F4000357C40077
:1050A8008356A40003568400835564000148814751
:1050B800EF905061EDB61D47E390E7D403574400E5
:1050C800E3ECE7D297270020938747A406073E978B
:1050D80083576400F1172310F70039BB93F71500C5
:1050E80081CF9387C18D9C4389C7DC4399C3014510
:1050F800829713451900B9B693F7250081CF938796
:10510800418E9C4389C7DC4399C305458297134563
:1051180029000DBE93F745000145E38507B297279F
:10512800002083C7B794A5C7FD1793F7F70F172774
:105138000020A30DF792A1EF9387818D9C4391CF17
:105148008547172700202303F7929387418E9C43B6
:1051580089C7DC4399C30545829797270020938721
:10516800A790C8472C08EF8090672808EFF08FB009
:10517800972700209387078C83D72702914503C57B
:10518800819817270020A303F78EEFE0AF8313451C
:1051980049004DBC411122C42A84554506C6EFF08A
:1051A800AFD2B335A00022852244B24041016F90AE
:1051B800704E797122D406D68D472E84631FF50070
:1051C80003D7A50083D6850003D6650003453400C0
:1051D80083D54500EFF04F9609A889671387D70054
:1051E8006310E50403C5250019E58547B25022542C
:1051F8003E85456182809387418D9443FDD603C6E1
:10520800360083C50600814802C202C001488147B2
:1052180001479106EFF08F9A0545EFF0CFF3F1B70C
:105228001387E700E303E5FC13873701631AE500FA
:1052380003C525005DD9014781460146814559BF0F
:10524800E507E304F5FA41677D178147E310E5FABE
:1052580003C75500C947E31AF7F883D6E50003D614
:10526800C5000355840083D5A500EF90704721C180
:105278005D45EFF06FC53335A000231EA1008345BF
:105288004400035524007008EF60C0718357C101C2
:10529800A9FF0357E4008356C4000356A4008355AE
:1052A8008400035524000148EF90D03F3DBF854757
:1052B800231EF100E9B7C1671387E7FF639DE50087
:1052C8009387418D9C4395C383C707000D47639C13
:1052D800A7006F90703CFD1749476396F5009387C8
:1052E800418D9C43FDF73A8582804947EDBF238075
:1052F800019023A4019023A201909717002093877F
:10530800A778170700001307E72398C317070000BB
:1053180013070727D8C3170700001307275998C78B
:105328009387818F17070000130727F998C317077A
:105338000000130747E8D8C38280011122CC1384E8
:1053480081901C4006CE26CA4AC84EC652C499CF80
:105358002E8AAA840149084063129902630C0A0440
:1053680097F0FF1FE780C07423A40190F2406244C5
:10537800D2444249B249224A0561828093194900C0
:10538800B3073501884709C997F0FF1FE7804072C6
:105398001C40CE9723A407001C40CE97C84709C9D4
:1053A80097F0FF1FE780C0701C40BE9923A6090034
:1053B800050955B745DD139644008145EFD07FAD0B
:1053C800144081477D5613F7F70FE37197FA139747
:1053D800470036972300C7008507F5B7011152C467
:1053E800138A419083270A0006CE22CC26CA4AC8CF
:1053F8004EC656C25AC0C9CF2A89014419ED9387AF
:105408008190944399CA03C601902A8481479305E1
:10541800F00F13F7F70F6367C7081315340021055A
:10542800EFD06FEFAA8401E92145EFD0CFEEAA842F
:1054380021C501444D49930700FD2380F4008547A9
:10544800A38024012381F400A38184005DC413890F
:10545800840023A224018149938A8190130BF00FC1
:1054680083C7019063F3F90031E883270A00A68512
:1054780003C50700EFD08FF4814503C50190753D42
:1054880003250A0097F0FF1FE780806223A201909E
:10549800F2406244D2444249B249224A924A024BFB
:1054A8000561828013974700369703470700630515
:1054B800B70005041374F40F8507A1BF83A70A007A
:1054C80093954900BE9583C705006384670323004D
:1054D800F90083C71500130529007D14A300F900FE
:1054E800194689051374F40F97F0FF1FE78020B958
:1054F8002109850993F9F90FA5B723A20400B5B7C7
:10550800411122C406C62A8405E10945EFF0CF9B64
:105518002A8611C5854503C58198EFD0FFB3054597
:10552800EFF05FC72A8401C9854503C58198EFD08C
:105538007FC922856535B2402244054541018280F4
:1055480089671387B700631AE500938741909C43E6
:105558009DC39C4503C5070065B71387C7008147EE
:10556800631CE5009C4503C50700854711C5938763
:1055780041909C43F5F381473E8582801D7186CE1C
:10558800A2CCA6CACAC8CEC6D2C4D6C2DAC05EDE0B
:1055980062DC66DA6AD86ED663080526834735006A
:1055A8002A8A95CB404105C85945EFF0EF919317EA
:1055B8008501E187916B3EC40149938A41909389A3
:1055C8008190930C000D130BF00F138DEB71834733
:1055D8003A006361F902F6406644D6444649B64942
:1055E800264A964A064BF25B625CD25C425DB25D2B
:1055F8002561828083078402224763C1E72A83A743
:105608000A00B5CB034704008547630BF70603463A
:105618008400930694009305F1010545EFE0AFE798
:10562800814719C1834705008346040011476381F8
:10563800E60203A70A008D4603471700630AD7004E
:1056480081CB19C70DC98546631FD7028D8B85C7C6
:1056580003451400130C2400E285EFE04FFFA3007C
:10566800A40083A70900AA84814D95E70346040096
:105678009147631AF60C83A709006391072239A49E
:105688008147014555B78946E317D7FE858BC1B7D2
:10569800850D93FDFD0F83C7019003A50900E3F76E
:1056A800FDFC93974D003E9503470500E30267FF15
:1056B80003471500E31E97FC1946E28509053EC617
:1056C800EFD05F83B24769D583A40900034704007C
:1056D800BE94C9DC9147631CF708C84405C58347D5
:1056E8008400034605006306F60803470400914753
:1056F800631FF708C84419C597F0FF1FE780403BB0
:1057080023A6040003458400EA85050597F0FF1FDA
:10571800E780603005C50347040091476312F70826
:10572800C8C483478400930594000505A30FF5FEBC
:105738000346840097F0FF1FE78060948347840046
:10574800639207140DBF83A7090095D783C50190FD
:105758000147E302B7F2BE84C10703C507FF630030
:10576800650D05071377F70FEDB788C4FDA08844CA
:10577800B5B7930594000505EFD0CFF78547E31635
:10578800F5F65545EFE05FF4630E050EEDB5884478
:1057980035D997F0FF1FE780A03123A404009DB7F7
:1057A80088C441B7B547231095012301F500834705
:1057B8000400194693052400A301F5008307840219
:1057C80015052303F50083471400A30FF5FE97F092
:1057D800FF1FE780C08A034684002386C40015C2E1
:1057E8001385440188C89305940097F0FF1FE7804C
:1057F800008983A70A00A68503C50700EFD00FBC60
:1058080071A823A80400F5B7938741909C43E384CB
:1058180007DCEFF0BFBC0145EFF0DF976DBB2380DD
:10582800C40083471400E28513852400A380F40094
:10583800194697F0FF1FE78080840345840093850D
:10584800FB71050597F0FF1FE780E01C05C50347BE
:1058580004009147E31BF7F0C8C48347840093050D
:1058680094000505A30FF5FE0346840097F0FF1F7B
:10587800E780E0808347840091E703470400854779
:10588800E31BF7DE83A70A00E38707DE03458400EE
:105898005105EFD04FA8AA84E31605F005091304B3
:1058A80094021379F90F25B3797106D622D426D23A
:1058B8004AD04ECE52CC56CA5AC85EC671C183472A
:1058C8003500AA8985C7444195C05945EFE0DFDF17
:1058D800931A850193DA8A410149138A4190130B7F
:1058E80000FDC14B83C73900636DF900B2502254E3
:1058F80092540259F249624AD24A424BB24B45612C
:1059080082808387F40063C8570783270A00A5C7E6
:105918005145EFD04FA02A8439CD23006501A3005B
:1059280005002301750183C70400194693852400E7
:10593800A301F5008387F4001505A306F50083C7C6
:105948001400A30FF5FE97E0FF1FE780407383C79D
:105958008400938594001305C400A305F400194638
:1059680097E0FF1FE780A07183270A00A28503C57F
:105978000700EFD0AFA40509C1041379F90F9DB74B
:10598800938741909C43BDD3EFF05FA52254B2505A
:1059980092540259F249624AD24A424BB24B0145EB
:1059A80045616FF02FFF938741909C43A5E783C71C
:1059B800B198A98BB5C30111916522CC9385D57196
:1059C8002A84114506CE97F0FF1FE780C00423A262
:1059D800A19029C5A285114697E0FF1FE780206A9C
:1059E8001545EFE07FCE2AC61945EFE0FFCD034706
:1059F80034002A86034524006244B245F2409716D3
:105A0800002083C686063337E000B336D000056130
:105A18006F9000484545828049458280F240624443
:105A28004D450561828083C7B198A18B1385818F0D
:105A380091E301456FE02F9B411122C485452A84DB
:105A480003C5019006C6EFF05F8F83C7B198A98B95
:105A5800A5CB171500201305250323808190EFE0BF
:105A68002F98138481901C4091C74D45B240224421
:105A78004101828003C5019019E10145C5BF9165C7
:105A88009385B571120597F0FF1FE780C0F823A42E
:105A9800A19061DD03C6019012068145EFD06FBF6A
:105AA800104083C601908147FD5513F7F70FE37641
:105AB800D7FC1397470032972300B7008507F5B73F
:105AC800014523800190EFE0AF9145BF9387818D19
