:040000006F10802CD1
:1000040000000000000000006F0080086F00E02284
:1000140000000000000000000000000000000000DC
:1000240000000000000000000000000000000000CC
:100034006F004006000000006F00E00500000000B3
:100044006F00E0336F0060056F0040056F0020050E
:100054006F0000056F00E0046F00C00400000000A2
:100064006F0060046F0040046F0040256F000004BF
:100074006F0060236F00C003000000006F00600386
:100084006F0040036F0020036F0000036F00E00265
:1000940001A001A001A001A001A001A001A001A054
:1000A40001A001A001A001A001A001A001A001A044
:1000B40001A001A001A001A001A001A0B717004068
:1000C400130770052380E704130780FA2380E704ED
:1000D4002396A70223800704371700408347270588
:1000E400898BEDDF835707053717004083472705C2
:1000F400898BEDFF3717004083472705898BEDDF98
:10010400035507058280B7170040930670052380C6
:10011400D704130780FA2380E70403C6B7041376D1
:10012400F60DA385C70423800704137605022DC6A4
:1001340003C6A700118A0DE22380D7042380E704B5
:1001440003C7A700136747002385E7009307004B05
:1001540001000100FD17EDFFB7170040930670057D
:100164002380D704130780FA2380E7047D8923942E
:10017400A70001000100010001002380070423807F
:10018400D7042380E7049306100537270040A30310
:10019400D780238007048280137605046DDE03C6AE
:1001A400A700418A0DE22380D7042380E70403C714
:1001B400A700136707012385E7009307007D01006B
:1001C4000100FD17EDFFB71700409306700523806B
:1001D400D704130780FA7D892380E7041365050497
:1001E4002394A700010001000100010023800704FB
:1001F4002380D7042380E704930630053727004083
:1002040079B74111814601468145114506C67124DD
:10021400B7170040130770052380E704130780FA1B
:100224002380E70403C76704136717002383E704E5
:1002340023800704B2404101828081460146814502
:100244001145A12CB7170040130770052380E7045C
:10025400130780FA2380E7047D572396E70203C738
:100264006704136717002383E7042380070401A0AE
:10027400BD473305F50201007D1575FD82804111EE
:1002840022C426C206C6AA84014463179400B2405D
:10029400224492444101828005041305803E4204B5
:1002A400C13F4180DDB7B71700401307000323881F
:1002B400E702054723A8E18873002030411126C4D2
:1002C40022C6B734004083C744001147BD8B639EE8
:1002D400E7049386718903C70600938771891377AE
:1002E400F70F1384418925C3035704004207418350
:1002F40031C3035704009306001063EDE6028357ED
:10030400040013970701418393071700C207C183B1
:100314002310F40083C68400938741A9BA972380ED
:10032400D70097F0FFDFE78020853244A2444101E3
:1003340073002030238007002310040097F0FFDFB0
:10034400E7806086DDB785472380F60097F0FFDFFE
:10035400E780808223100400835704001397070169
:10036400418393071700C207C1832310F40083C697
:100374008400938741A9BA972380D7007DB7372794
:10038400004083476700858BA9CB011122CE054429
:100394002303870097F0FFDFE780E080A38B0188C9
:1003A40083D54189138541A997F0FFDFE7808084D5
:1003B4000DE19305A1006800238B818897F0FFDF8E
:1003C400E780E0808355A100324597E0FFDFE780B6
:1003D40020707244056173002030730020302303C1
:1003E400048015472303E48001002302A480828053
:1003F40083076480E3CE07FE23030480828083079F
:100404006480E3CE07FE03454480828083076480D2
:10041400E3CE07FE2302A4808280411126C44AC28F
:100424004EC006C61377F50BAD47AA892E899544AD
:100434006306F70019456537653F8D444E8545379A
:10044400FD59FD1463983401B240A2441249824913
:1004540041018280135509011375F50F453F2209A7
:10046400CDB7011126CC06CEB70408005137154587
:10047400BD37713769372AC6A53F324593771500D2
:1004840089EB136515001375F50FF240E24405611D
:100494008280FD14E9FC0145CDBF397126DC4ADABE
:1004A4004ED852D656D45AD25ED006DE62CE66CC30
:1004B400B7E700E07D5783AA070022C603AA4700D6
:1004C40023A0E71823A2E718B71700401307700505
:1004D4002380E704130780FA2380E70483C74704D3
:1004E400930B75FFB684E20793FBFB0F8546AA893D
:1004F4002E8B328937240040E187015763FA760155
:100504006308D5008946130700026313D500015719
:10051400D98F93F7F70FB71C00402382FC041147CF
:100524002303E4801305F00F5D3D094CD135636965
:100534007C11B70707003E9B378707007955637E18
:10054400EB02B3079B00636AF702A9476399F906B4
:1005540089E48144713D26850DA0DA850945753D00
:1005640005090345F9FFFD14050B4D3581C4937747
:10057400FB0FFDF7FD3569FD7D55B71700401307E7
:1005840070052380E704130780FA2380E70403C778
:100594004704418B2382E704F250B7E700E023A02D
:1005A400571123A24711E25432445259C259325AC4
:1005B400A25A125B825B724CE24C21618280A54795
:1005C4006395F90685691309F00FB3069900B374AE
:1005D4002B01B6941349F9FFB3749900856B3379F1
:1005E4006901416B9387F9FFB3F7270199E363FC32
:1005F400340193D94900C147E3E637FF99BF056940
:10060400C1697D19D9B71305800D63886901130584
:1006140000026384790113051008CA85FD3B9135F6
:1006240021DD4E99B3843441D9B7DA852D45F533AC
:10063400CA94E30099F20509D933A30FA9FED5BFE3
:100644009387F9FF93F7F70F636CFC0803C75C0407
:10065400B70708001377070219E3B787070079552E
:10066400E37DFBF033079B00E3E9E7F08947639000
:10067400F9048980D549E38E04ECDA850945713B98
:1006840011090327C9FF91472320E48003076480ED
:10069400E34E07FE23033481FD17EDFBFD14110B1C
:1006A40081C49377FB0FE9FF6D3B71F5F1B5854785
:1006B400E387F9F4DA852D458D339389F4FFE38AD2
:1006C40004E8353B93F7390091EB83260480032734
:1006D400090093074900E39FE6E63E89CE84F1BF13
:1006E400B5476396F9001305900BD5399DB5B1470D
:1006F4001305B00AE38BF9FE9947639EF902DA8584
:100704002D45213B81448D4BA149D5396396740114
:10071400832704802320F9008504E39834FF83278A
:10072400048013172B01635507002312F90015B534
:100734002322F90039BD9D476399F90281451305C8
:10074400B004E139BD442320090023220900FD59E6
:100754007D3193F77400CA9703C70700FD14398DE0
:100764002380A700E39634FFEDB3A1476392F90415
:10077400CD398144630D0B008D479304C003630896
:10078400FB009304000563048B0193044004137578
:10079400C507E30095DC194599319939054581313F
:1007A4002685AD3109459D316D39E31405DAE9B388
:1007B40091476399F900130560061531153913053E
:1007C400900925B7E38709D8F15469B319CDB71750
:1007D4000040130770052380E704130780FA238081
:1007E400E7042396A70223800704828019C1814766
:1007F40099E982803387F500834607003307F500C3
:1008040085072300D700E397C7FEE5B719C1FD5755
:1008140081E98280910503A7C5FF1105232EE5FE1A
:100824007D16E319F6FEF5B7797122D4173400006A
:10083400130444AB1C4006D626D24AD04ECE91C7F0
:1008440082979737000023AF07A85C4089CB03D574
:10085400C18BAD3F5C40829703D5E18B853F1C4043
:10086400639C07189737000083C757BB858B95C7D0
:1008740097370000A38407BA17370000034737BA35
:10088400914763FCE700752B9737000083C737B99E
:10089400F9178A07A2979C4382979737000083C76A
:1008A400A7BC918B89C7972001E0E780E0BC1C447A
:1008B40091C382979387818B984317360000034630
:1008C40076A03E89973400009384C49F9737000034
:1008D40083C7479F93961700BA9683D6060063830F
:1008E40006109737000083C7E79D63FBC70686079A
:1008F4003E97835507002310070003D5C18B2EC6EE
:10090400F1359387C18C9C43173500000345859BC3
:1009140013172500BA979C43B2458297AA8903D539
:10092400E18B6D359737000083C7C799139717007C
:1009340083270900BA9703D70700B3E9E900239096
:10094400370183C70400850793F7F70F17370000B3
:10095400230AF796173700000347D79663E6E700A4
:1009640097370000238007961C40D9E79387418C72
:1009740098433E8451C39737000083C797AA91CB0D
:100984009737000083C7B7A989E7971001E0E7808C
:1009940020681C4082972A8425C19C48AA9717374F
:1009A40000002329F7929387818C9C4381CF03D540
:1009B400C18B293D228597F0FFDFE780400803D5EE
:1009C400E18B2935973700009387078CDC538DC75B
:1009D4002254B25092540259F249456117F3FFDF91
:1009E4006700A3DE850793F7F70F97360000238B84
:1009F400F68CE3EDC7ECF5B5B2502254925402598B
:100A0400F249456182809167B7C6004093873730C9
:100A140023A6F6200F100000973700009387878ADB
:100A2400884F9387419B9C43316713073730F053BA
:100A3400B7071000FD17918F99833A0523A6E62086
:100A44005D8D82804111B7170040985F3AC6945F6C
:100A54003247E39CE6FE324541018280411106C6DD
:100A6400D5379736000083C66683858AB1C6930757
:100A740030333307F502B337F5023983CA07D98F08
:100A84001737000013070784584B01456303F70227
:100A94003385E740636BF70037653D0889C63785C2
:100AA4006F0813050590198D3E951737000023250F
:100AB400F782B24041018280E5473307F502B3373C
:100AC400F5022583DE0765BF0327C50F8346B500FE
:100AD40097370000938747949C4F58439386160298
:100AE40095829043FD1693F6F60F10C3D04350C37E
:100AF400904710C7D04750C7904B10CBD04B50CB2A
:100B0400904F10CFD04F50CF91C613070702938751
:100B14000702C1BF82808347E50193F7E70F91CBBA
:100B2400014582800145B240224492440249410178
:100B340082808347F501EDF783460501034785006D
:100B440089CA034665029727000083C73775636720
:100B5400F60093770701E9D7814789CA83470515CA
:100B64008346F514418BA207D58F01CB0347451566
:100B7400834635152207558FBA97DDD31727000012
:100B84000347C77141119316870106C622C426C2C2
:100B94004AC0E18663D506049387C71313D457006C
:100BA400973700009387C792BC479724000083C4FB
:100BB400846F7D5903A70708637327013A899C430F
:100BC400F5FB9387018D9C438297E36DA9F433056C
:100BD400A94026943334850013451400A9B7058B26
:100BE4009387C71209CB8A071384F7039307D007A7
:100BF4003354F40275B786071384F7019307D003BF
:100C0400C5BF5D7122DE1384419A3AD218403ED0AA
:100C14004ACA1C5F86C696C499839AC29EC026DCC3
:100C24002ADA2ED832D636D442CE46CC72C876C60C
:100C34007AC47EC2858B1389019AC1C31C5F972431
:100C440000009384647D93F7F7F91CDF9727000075
:100C540083C7877C93F707048DC39387018D9C43D7
:100C640082979727000023A1A77C83C7040093F7EA
:100C7400F70B172700002301F77A85471727000091
:100C8400A30EF77883C7440093F7070481EF938793
:100C9400419B9C43D844B8D3930700FC172700001A
:100CA400230EF7768387640063D90700832709003E
:100CB4009C43172700002304F77618401C5F8583A4
:100CC400858BC9CBF5571CDF010001000100010031
:100CD4000100010001000100010001000100010008
:100CE40001000100010001000100010001000100F8
:100CF40001000100010001000100010001000100E8
:100D040001000100010001000100010001000100D7
:100D140001000100010001000100010001000100C7
:100D240001000100010001000100010001000100B7
:100D340001000100010001000100010001000100A7
:100D440001000100010001009387419B9C431307AC
:100D54005004B8CB18401C5F9183858B89CFBD5755
:100D64001CDF9387419B9C4323A8070485471727CF
:100D740000002305F76A83270900D8430583058B00
:100D840019C7D843759BD8C3D843799BD8C3725429
:100D9400B640A64216438643E2545255C2553256D3
:100DA400A256125782577248E2485249424EB24EF6
:100DB400224F924F61617300203017270000130700
:100DC400A76583474700858B89EF83472700858B79
:100DD40089EB83473700858BEDD797270000238F56
:100DE400076282809387019B9C4399CB944BD04BA1
:100DF4009842518F98C294439C479842D98F9CC281
:100E04009387419B9C4337C700401306C003A8CB7C
:100E14009306200397250000938505608327872088
:100E2400C18393F7F7036369F60083278720C1839F
:100E340093F7F70363E6F60083C74500858BF9DF74
:100E44008280172700001307275D83474700858B9F
:100E540089EB83470700858B91CB97270000238F6D
:100E6400075A97270000A38B075A828083471700ED
:100E7400858BE1DFDDB79387019B9C4399CB944B32
:100E8400D04B9842518F98C294439C479842D98F33
:100E94009CC29387419B9C4337C700404146A8CBE3
:100EA400E546972500009385255783278720C1832E
:100EB40093F7F703637DF60083278720C18393F7B5
:100EC400F70363E6F60083C74500858BF9DF82806C
:100ED4001387419A1843AA87185F1583058B25EF5A
:100EE4000345150015051377C51F19C6B386E7001A
:100EF40083C626002300D60095C59726000083C626
:100F0400065293F606040945A1CAB386E70083C6D0
:100F14003600054693F5F6066390C504E206E186BD
:100F240063CC06023385E7008347150003470500B9
:100F3400A20793F70770D98F13970701418393761C
:100F4400074099C6136707802396E19A014582807A
:100F54002396F19AE5BF05458280011136C8938630
:100F6400419B2ECC8C423AC63EC498452ACE32CA06
:100F74009317070142C2C1831378172036853E8632
:100F840097260000938646496304080413770720D4
:100F940061CF03C726001367170017280000230E2C
:100FA400E84613070019B8D1130700F89725000085
:100FB4002386E5461387419A0C4337080010D85519
:100FC400719B13672700D8D598413367070198C1EF
:100FD4001377261005C31376061045CA03C7060007
:100FE40013671700172600002308E642172700009E
:100FF4002318074283C6460093C7F7FFC207E206D9
:10100400E186C183184163D106029396170163D721
:10101400060830538D4663E9C6008546172600004E
:10102400230ED63E3453FDFE972600009386C62534
:101034008386460163DD060093960701C18663D566
:1010440006067053894663E4C6007453FDFE1447D4
:101054007245E245F58F1CC75246C2463247A24745
:10106400124805617300203003C716001367170088
:1010740097250000A382E53A172700002300073ACA
:1010840017270000231E0738A1B703C736001367CC
:10109400170017260000A302E63889BF85461726E5
:1010A4000000230DD63649B7544713960601635101
:1010B4000602B7061000FD1674D397260000938627
:1010C4006620944E8506172600002329D62041B7B2
:1010D400A166D58FADBF172700001307A735834638
:1010E400B7019727000083C73738B69793F7F70FF0
:1010F400FD4663EAF6044C4B97260000A38CF632B7
:101104009727000083C7173305473317F70097263F
:101114000000A38BF6346D8F1DEF9726000083C665
:10112400F634B3F6D70213050002814733D6F5002F
:10113400058A13F8F70F09CE6399E6009727000094
:10114400A38A072F828081177DB705071377F70FCE
:101154008507E39DA7FC82809387C19B9843B7577B
:1011640002009387079F8326070913965600635846
:101174000600832607091396660063440600FD17DC
:10118400FDF3828051C9AA870145C9C98D07C207E9
:10119400C183F19BC207C18313074003636BF7024A
:1011A400138701A50843138781A414436396A602F9
:1011B400172700001307470D185B014525C341118C
:1011C400C20706C60545DD8D0297B24001454101BF
:1011D40082801387C1A4F9B70357650005EF03574D
:1011E40045006369F702B306F74021466370D602EF
:1011F4001041938687001D8FAA96611790C223928F
:10120400E6002393060014C12312F5002313B5004E
:1012140021058280084159BF01458280828001CD29
:10122400938701A503A80700938781A48C430147F2
:10123400C28763E3B70082809443636FF50663ED6E
:10124400A60613868700E368C5FE03D567002166FA
:1012540005066317C50003C6819605062384C19657
:1012640023930700638407031386C1A41042630F0A
:10127400F6000356670019EA83D7470014C3835660
:101284004700B697A1072312F700BA879843E304EF
:10129400B7FA9386C1A49442E30FD7F88356670044
:1012A400D9FA83D64700035647001843A106B296DD
:1012B4002392D70098C382803E87B6879DBF0000E3
:1012C800974100209381013217710020130101D347
:1012D80013054000972500209385455217360020B6
:1012E8001306C67D63FAC5008322050023A05500B6
:1012F80011059105E3EAC5FE17F501001305C5E9D7
:10130800973500209385857B1386018763FAC5008E
:101318008322050023A0550011059105E3EAC5FEC7
:101328001385018797650020938505A56377B50028
:10133800232005001105E36DB5FE9302800873A014
:101348000230972200209382624B93E2120073903E
:101358005230971200009382E21573901234730092
:1013680020303D432A876373C3029377F700BDEFAC
:10137800ADE5937606FF3D8ABA960CC34CC30CC7FD
:101388004CC74107E36BD7FE11E28280B306C34026
:101398008A069702000096966780A6002307B70082
:1013A800A306B7002306B700A305B7002305B700B7
:1013B800A304B7002304B700A303B7002303B700AF
:1013C800A302B7002302B700A301B7002301B700A7
:1013D800A300B7002300B700828093F5F50F93961A
:1013E8008500D58D93960501D58D61B79396270015
:1013F8009702000096968682E78086FA9680C11743
:101408001D8F3E96E374C3F8A5B7B717004003C70E
:1014180077051377E70FA38BE704130700F8A38D6D
:10142800E7043D47238CE70413077003A38CE70404
:101438008280B717004003D587005D715ED64205EC
:10144800418186C6A2C4A6C2CAC04EDE52DC56DAA4
:101458005AD862D466D26AD06ECE9377050C130739
:101468000008814B638DE716130700046395E714A2
:10147800B7240D8F7D8993840480B3D4A402916727
:10148800BE94EFC0F12FB707020003A6079083A60A
:101498004790BD80EFC08163EFC011712A8C03D9DA
:1014A8000187139D0401135D0D01938A018763155C
:1014B8000900056913090980B7170040130770056B
:1014C8002380E704130780FA2380E704371A0040D3
:1014D800054793960401896C2389E704514B014E13
:1014E8008145930D0A0413087005130680FA89488C
:1014F800C182938C0C71294323800D012380CD0078
:1015080023162A0323800D0083472A05898BEDDFE4
:1015180083570A0583472A05898BEDFF83472A05E8
:10152800898BEDDF83570A0523902A01C207C183FF
:101538003385A7419319050193D909416387091494
:101548003387B9026358070C050E420E135E0E016D
:1015580063E2C80D63D3050A3305B040931505014E
:10156800C185C204C18063D1350B096513050571B6
:101578003385A502B7170040130770052380E704D9
:10158800130780FA2380E704239677032380070450
:101598003345950242054181B640264496440649A2
:1015A800F259625AD25A425BB25B225C925C025D8B
:1015B800F24D6161828085EFB77489097D899384D2
:1015C8000480B3C4A4029167BE94EFC0711BB7072F
:1015D8000200BD8403A6879083A6C79065BDB707A0
:1015E8000200856403AC878F938434314DBD130C9E
:1015F800000095446DB53A8901B7B307FD4093994A
:10160800070193D90941B1BF0965130505713385F0
:10161800A902BDBF3385D7406364FD003385F6401A
:10162800330595033344D50263458300131504013C
:101638009DB74E8536C642C432C2EFC0914AE28594
:10164800EFC0111BEFC0D143131E0501135E0E41FD
:101658003307C94142074183124622488948B246A6
:101668002943631AE900130719006344300113077B
:10167800F9FF420741837D1B137BFB0FCA8BCE8585
:10168800E31B0BF62390EA0055B7014531B7B717AE
:10169800004003D587005D7186C642054181A2C41A
:1016A800A6C2CAC04EDE52DC56DA5AD85ED662D41A
:1016B80066D26AD06ECE02C69377050C130700086F
:1016C8006381E714130700046399E710B7240D8FAB
:1016D8007D8993840480B3D4A4029167BE94EFC03B
:1016E800310AB707020003A6079083A64790BD807A
:1016F800EFC0C13DEFC0514B2A8A03D92187939B84
:10170800040193DB0B01938921876315090005699F
:1017180013090980B7170040930670052380D70482
:10172800930680FA2380D704139C04018546896AAE
:101738002389D704514B814D014D135C0C01938AC9
:101748000A714A8597200020E7800017B30C75417D
:10175800C20C93DC0C412390290163850C14B387D8
:10176800AC0363DB070C850DC20D93DD0D018947C2
:1017780063E4B70D63550D0A3305A041131D050138
:10178800135D0D41C204C18063529D0B09651305A9
:1017980005713305AD02B7170040130770052380A4
:1017A800E704130780FA2380E70432472396E70209
:1017B800238007043345950242054181B6402644FB
:1017C80096440649F259625AD25A425BB25B225C8D
:1017D800925C025DF24D6161828085EFB774890980
:1017E8007D8993840480B3C4A4029167BE94EFC03A
:1017F8002179B7070200BD8403A6879083A6C79006
:10180800C5BDB7070200856403AA878F9384343166
:10181800EDB5130A00009544CDB53E891DB7338553
:10182800AB40931C050193DC0C41A9BF0965130566
:1018380005713385AC02BDBF63FEAB00330585413E
:1018480033055503A9473344850363C88700131537
:101858000401A5B73305AC40E5B76685EFC071282C
:10186800D285EFC0E178EFC0B121931D050193DD6A
:101878000D41B307B941C207C183631AF900930741
:101888001900634490019307F9FFC207C1839306C7
:10189800FBFF13FBF60F4AC6668DE3100BF8239087
:1018A800F90075B7014519BF41112A83014E930EFE
:1018B800407E130F0019930F400663EB6E0A9308DE
:1018C800001913034006B3781503854E0D4FA14F39
:1018D800337365020D891335150063E5BE0C1308D3
:1018E800F6FF794672984208135808013307C70271
:1018F80013D61700BE0732976146B3F6C602130621
:101908008070B386C6023697A166F58F42075D8F51
:10191800B717004083C6F70293F60608A307D1005D
:101928000346F10083C6F70293F60608E394C6FE61
:101938008346F10093F6F60FF1DE930670052380D7
:10194800D704930680FA2380D70423AA070383C603
:10195800170393E60608A388D702D8DB03C7170343
:1019680013670704A388E7022380070441018280E4
:101978007D133368E3039308E016630E08003368A9
:10198800F3039308D016630808009378330093B8DC
:1019980018009388D81633081E01131E0801135E19
:1019A8000E0121BF6393E5030548638608000148DB
:1019B800630303002A8871087298FD15131E080135
:1019C800C205135E0E01C18109BF13F8150063F447
:1019D800BF007908D5B713381800E5BF914763ED04
:1019E800B702B7070200938707918A05BE959C4105
:1019F8008287B717004003A7470B1345F5FF698F88
:101A080023AAE70A03A7070B698F23A8E70A03A7F6
:101A1800070A798D23A0A70A8280B717004083A6FA
:101A2800470B1347F5FFF98E23AAD70A83A6070B9E
:101A3800558D23A8A70A83A6070A758F23A0E70A4E
:101A48008280B717004003A7470B498F23AAE70AEC
:101A580003A7070B1345F5FF45BFB717004083A63B
:101A6800470B1347F5FF758F23AAE70A03A7070A51
:101A7800598D4DB7B717004003A7470B498FEDB7EE
:101A8800B717004003D7870109C5D98D239CB70034
:101A9800828093C5F5FFF98DD5BFB717004003D5F0
:101AA8008700420541819377050491EB9377F5010F
:101AB8003755E801130505803345F5028280937791
:101AC800050C130700046397E7009377F501374582
:101AD8009C1CCDB72165130505D08280B7F700E0BF
:101AE800C8439C478280814737370040A14663C47A
:101AF800C700328582800345B740E38EA6FE338552
:101B0800F5000345050085072304A740CDB7B7278F
:101B18000040C8C709472380E70011472380E70032
:101B28008280411122C406C62A84853F2947B3070B
:101B3800E502B2408D83B3D7870222449507B3D715
:101B4800E70237370040C207C1832316F700410177
:101B58008280716541111305052006C6D937B7374C
:101B68000040130770F82381E7000D47A381E700C1
:101B780013070004A380E70005472387E700B24066
:101B88004101828037370040834727001A0593F7C1
:101B9800F703C98F93F7F70F2301F7008280B73750
:101BA800004003C7170019C9D98DA380B70003C720
:101BB8000700136787002380E700828093C5F5FF3D
:101BC800F98DA380B7008280B73700402147B73628
:101BD800004091E1828003C6B700E30CC7FE05050B
:101BE8000346F5FFFD15C2052384C600C181D5B79C
:101BF800411122C406C62A844D352947B307E50298
:101C0800B2408D83B3D7870222449507B3D7E70242
:101C180037370040C207C1832316F740410182804D
:101C2800716541111305052006C6D937B73700403D
:101C3800130770F82381E7400D47A381E740130796
:101C48000004A380E74005472387E740B2404101ED
:101C58008280B73700402147B736004091E1828043
:101C680003C6B740E30CC7FE05050346F5FFFD159F
:101C7800C2052384C640C181D5B783C785002145E5
:101C8800C18BD1E32D4541E303C70500894763189C
:101C9800F706D841411106C68347170003470700D6
:101CA8003285A207D98F4167130627FE6384C704CC
:101CB8006369F60005176382E70223900600294549
:101CC8003DA0130647FE6387C7021517E397E7FE93
:101CD80095472390F600154629A0D1472390F60092
:101CE8005146CC4597200020E78000300145B2409E
:101CF8004101828085472390F6000546DDB7239091
:101D0800060005458280828083C7850093F7070215
:101D1800E9E7011122CC06CE26CA4AC84EC652C4EB
:101D280003CA050009482E848547631C0A0383A853
:101D38004500B284368903C8180083C80800BA89E8
:101D4800220833681801C168138318FE6304680207
:101D58008D18630F18058D67938727906305F8061C
:101D6800A947F2406244D2444249B249224A3E85D8
:101D780005618280B6853285E93D63840900AD47F7
:101D8800CDB7D14763F42701B547E1BF4844514671
:101D9800A68597200020E7802025014A03A781888F
:101DA800814761D3184355DF52850297814755BF54
:101DB80079F7E3EBD7FC48440546A6859720002031
:101DC800E7808022E1BF6244F240D2444249B249EE
:101DD800224A854705616F602028A1473E85828099
:101DE80041677917630CE502411122C406C685478D
:101DF8002A84639AF50022852244B240938541A83B
:101E080041016F70106D89476396F5008545EFA015
:101E1800800A75D1B24022444101828082804111FA
:101E280022C42A844165938541A87D1506C6EF70B2
:101E3800506A37250000130585DE0588EF90307F4E
:101E480005C02244B240B75600203755002093867B
:101E580006BD4146C545130505AC41016F70905C50
:101E6800B240224401454101828009C523A4A188CA
:101E780001458280454582801147636DA706370773
:101E88000200130747920A053A9518414111AE8797
:101E980006C6B285028751476145639AE7005146F5
:101EA800138501A797200020E78000140145B24060
:101EB8004101828005476145E39BE7FE054613859E
:101EC8004187CDB705476145E393E7FE054613858E
:101ED8008187C9BF05476145E39BE7FC0546138534
:101EE800C187C9B715476145E393E7FC15461385D4
:101EF80001884DBF0945828011476369A704AA87F5
:101F0800370702008A0713078793BA979C43411142
:101F180006C62E8582875146938501A79720002003
:101F2800E780800CB24001454101828005469385D7
:101F38004187EDB7054693858187CDB705469385DB
:101F4800C187E9BF154693850188C9BF09458280C5
:101F5800411122C42E84938541A826C206C6AA84AC
:101F6800EF60400C058905C1B757002083D7A7B794
:101F7800A285B2402310F4002244268592440146EB
:101F880041016F603065B2402244924449454101A5
:101F98008280411106C6EFF0CFC9BD4763F4A700A0
:101FA800EFF02FC9EFF0AFEEBD4763F4A700EFF0F5
:101FB8000FEE83D52187B24003D5018741016F1009
:101FC800205C411193962500AA852D4506C69720C9
:101FD8000020E78040CCB240014541018280411198
:101FE80022C426C24AC02A842E89B284AA859306AE
:101FF80000200146254506C697200020E780A0C995
:10200800931629002686A285294597200020E78077
:1020180080C8B2402244924402490145410182806D
:10202800011122CC06CE3714004026CA4AC84EC633
:1020380052C483447405034AB4058349840503499B
:102048009405EFF08FBC8347A40593F4F40F137A3B
:10205800FA0F93E71700230DF40493F9F90F137996
:10206800F90FB717004003C7A705058B6DFF03D508
:10207800C705A38D4705238C3705A38C2705A38B9C
:102088009704F2406244D2444249B249224A056167
:10209800828041119397050122C406C6C1872E8408
:1020A80063DD0700EF00705619C1EF00704F21651E
:1020B800218DB24022444101828093F7150013C557
:1020C8001500E5FB9397250163D00702EF305121F6
:1020D800C93503C5C18837F60200130606E08965CD
:1020E800EF10E0220965E9B7939715010145E3D29E
:1020F80007FC3705020013054599EFC0E16503C5E4
:10210800C188130600649165EF10602011654DB712
:10211800B7050200370502001D7149469385C5942D
:10212800130585D086CEEF10400801E93705020077
:1021380013050596EFC0416201A037F700E0F95793
:102148005CC7FD571CCB8566B7E700E023A0D71016
:102158001306701010C3B8434146B0C323A0D71864
:10216800B8C3010001001306C00381454808EF0009
:10217800B07DB7570020938747283ECA8967938761
:102188000780231CF100ED47A301F1029307A0107B
:102198002312F102D1472303F102A167938707E0D5
:1021A8003ECEB72700009387A7FCBEC4B727000020
:1021B800938767FEBEC689472304F102B547230803
:1021C800F102B7270000938747AE3EDAB727000031
:1021D800938787023EDEB7F50700B727000093878D
:1021E800A7F981467000E1051945BEC09720002077
:1021F800E78060AA58088147994670003E960346D2
:10220800060085070507A30AC700E398D7FED2474B
:1022180091C70357810185676373F70001A04808D8
:10222800EF104049AA8501C93705020013054597F3
:10223800EFC0E14001A0F6402561828041113725B9
:10224800000022C41305A50906C61384C188EF102F
:10225800E0422300A4002928034504002244B24098
:1022680037F60200130606E0896541016F10200A5F
:10227800411106C6B7170040130770052380E7040D
:10228800130780FA2380E70403C7F7021377A70F21
:10229800A387E70203C7F70213672700A387E702AC
:1022A800CD391305407E814701478146054685455E
:1022B800EFF08FDFB240014541016F108067138551
:1022C80081B98280411122C426C213F4F50FB75494
:1022D800002006C69387C4C213073400A381E70011
:1022E80071771307F7EF2392E7001307A0FB2E86F9
:1022F8002383E700AA8513857700EFC0E12813063A
:1023080074002244B2409386C4C292441376F60FF6
:102318008545014541016F30F07D4111C1450545B5
:1023280006C6EFF0EFF5371700408327870A916656
:102338008545D58F2324F70A2165EFF02FEA8D45CF
:102348001165EFF0AFE9EFF0DF800145EFF09F8313
:1023580085450545EFF0BF84B240B7E700E0370791
:10236800000423A0E7104101828045BF3D6541116B
:10237800130505A606C6EFF08FF9372700408347F7
:10238800270093E717002301F700B240B7E700E002
:10239800416723A0E7104101828037270040834727
:1023A8002700C14693F7E70F2301F700B7E700E0DE
:1023B800B843B4C3C16623A0D718B8C3010001004D
:1023C8008280138761898347070093F7F70F99CBBA
:1023D80023000700138741A918C103D741897D1736
:1023E8002390E5003E8582800347050081478507E5
:1023F80093960701C18263E4B6003A858280B306EA
:10240800F50083C60600358FDDB7411126C222C408
:102418004AC006C6138981B92E84630825012E8611
:10242800AA85138581B9EFC02116A285138581B9C4
:10243800653F22992300A900930514002244B24065
:102448000249138581B99244C205C18141016FF0E7
:10245800AFF732882390060081479308F00F1303E3
:10246800E00B130EA00B63E3B70082803307F5007F
:1024780003460700834E170005061376F60F63958B
:102488001E03834E270063916E0203473700631DC6
:10249800C70171164206418293854700AA95239089
:1024A800C60042856FC0410EB297C207C18365BF9F
:1024B80041111305800406C697100020E780604488
:1024C800371700408327870A8D451305002093E7B7
:1024D80007202324F70AEFF06FD0EFF06FF471357F
:1024E8000539A93BEF80016EEF80C174EF002071C0
:1024F800192E97200020E780E0B2E5BF011122CC19
:102508002316C100328403C6018A6C0006CEEF4050
:10251800D00F37050200A2851305059CEFC02112D4
:10252800F24062440547A38DE18805618280370542
:102538000200B305B040130545A56FC04110011155
:1025480022CC36C606CE2E84EF003022B24637465D
:102558000F00130606243376C50291CA3705020018
:10256800B285130545A432C6EFC0610D32462285F7
:102578006244F240814505616F70E17D81E937056C
:102588000200B2851305459D6FC0610B8547639EA8
:10259800F50019E6370502001305859E6FC0C11BBB
:1025A800370502001305859FD5BF89476398F50055
:1025B8000DE637050200130585A0CDB78D47639E4C
:1025C800F50011E637050200130585A1C1BF3705DF
:1025D8000200B2851305C5A245BF82808347250046
:1025E800797106D622D405476380E70281CB354747
:1025F8006382E702B25022544561828037050200A7
:102608001305059BEFC04115014685450D45EF6053
:102618002110CDB78345C5000049231F01002EC6F0
:102628007939B2452A869306E10122851D358357FB
:10263800E101E9D369318355E101C13B65BF797196
:102648009397050122D406D626D24AD04ECE52CC34
:10265800C1872E8463D0070403C5018AEF00E07A9E
:10266800AA8419CD034705009307000B6317F700E9
:10267800834545002105EF40B0512685EF004072A3
:102688002165218DB250225492540259F249624A6E
:102698004561828093F7150091CF03C5018A3756AB
:1026A80000201306C6C493858180EF60810013451E
:1026B8001400C9BF93F7050881CB41657D15EF80EC
:1026C800214E134504087DBF93F7850085CB8157BC
:1026D8002312F100239C0188239E0188239F0188EF
:1026E8000547238DE18883C6018A416509464C0068
:1026F8007915EF4050191345840069B793F7050120
:1027080091CF416513078025814613064006D145C0
:102718007915EF50717F13450401ADB793F70502A2
:10272800D5CF9389B18903C70900138AB1893DEBD5
:10273800138901810347090083D781899384018123
:1027480035CBC1692312F10001478547814605460B
:10275800C9451385E9FF231601002313F100EF4053
:10276800407C2AC421C103C6018A9307A00523001F
:10277800F5004C001385E9FFEF4000731389018AC7
:102788000DE585472300FA0083C7040003450900C7
:102798001306006493B71700930500022380F40022
:1027A800EF00F03613450402F1BDC9454800EF407B
:1027B800303ECDBF2312F10003C6018A41654C00AB
:1027C8007915EF40206E79FD85472380F90083470E
:1027D800090093B717002300F900E9B793F7050438
:1027E8000145E38107EA41657915EF80213B03C57F
:1027F800018A05661306069693050004EF0030313A
:102808001345040441B501113725000022CC1305F6
:10281800656406CE1384018AEF0050662300A40085
:102828009305401F0945EF20E05ED1451D45EF2087
:10283800605E930540062145EF20C05D9305400684
:102848003545EF20205D3706020013068699D545E9
:102858000145EF40801885470D47700091451305E5
:10286800F0402304F100A304F1002305E100A305CF
:10287800F10002C6EF6071593000854513058040AC
:10288800EF60B15813069100854513059040EF603D
:10289800D1571306A10085451305A040EF60F156F6
:1028A8001306B10085451305D040EF601156EF506F
:1028B800205B03450400EF50400B7D55EF40C01FDF
:1028C8007D55EF70E03D034504008545EF00D013CA
:1028D800F2406244056182802A8637050200B3050A
:1028E800B0401305C5A96FB09155797106D619C5C1
:1028F8000947630FE500B250456182806C00EFF034
:10290800AFDF37050200130505B6EFB0F164E5B790
:102918006C00EFF06FDE370502001305C5B7F5B799
:102928009387C18A03D707006310A70237050200FF
:102938002391B7002392C7001305C5A72E86BA8531
:102948002393D7006FB0B14F37050200130545A98F
:102958006FB091609387C18A8356450003D70700FB
:10296800011106CE22CC6391E6041384818141676C
:1029780003450400791798C323A207008945EF008F
:10298800D02F034504009145EF00302F85471306EB
:10299800F100854513055030A307F100EF707178F9
:1029A800F24062440561828037050200130545A99B
:1029B800EFB0915AF5B77D15954763E5A714B707AA
:1029C8000200938747A60A053E951C41411122C47F
:1029D80006C626C22E84828737050200130545AB3A
:1029E8002244B240924441016FB0115703C72500F9
:1029F8009947631CF7002E85B13F8345640037056E
:102A08000200130545ACEFB09143370502001305EA
:102A180005AEF9B703C7250095476314F7029387F6
:102A2800C18A83D607004167791703D5A500638F4C
:102A3800E600EF80E11637050200130505AFEFB099
:102A4800B15137050200130585B159BF03D7E50019
:102A5800938481812391E70003D705012390A70080
:102A680003C504002392E70003D725011306006479
:102A780089452393E700EF00900903C50400096620
:102A880013060690A145EF00900803C504000566EB
:102A9800130606C89145EF0090070356E4008355D6
:102AA800A40037050200130545B0EFB0513951BFF6
:102AB80037050200130545B225B783C7250011471E
:102AC8006397E700370502001305C5B311BF19471F
:102AD8006395E7022E85BD3D834564002244B240DC
:102AE800924437050200130545AC41016FB03135FA
:102AF80037050200130585B5E5B5B2402244924476
:102B080041018280828001119397050122CC06CE73
:102B180026CAC1872E8463DE070003C58181F52498
:102B280011C1BD2C2165218DF2406244D24405615A
:102B3800828093F7150091CF03C581813756002015
:102B4800130686C59385418AEF70D130134514006A
:102B5800E1BF93F72500B9CF03C58181130600644F
:102B68008945EF00C07A9384C18A03D5040093078E
:102B780080F82302F1000147854781460546ED4567
:102B88002315F100EF40E0392AC615C10356A1000C
:102B98004C0097100020E780204503D504002C0046
:102BA800EFF00FBB09C5ED452800EF40607E1345E7
:102BB80024009DBF93F7850085C383C7818103D512
:102BC800C18A13074006814613064006D145EF70B7
:102BD800D1211345840089BF93F745000145A9D742
:102BE80003D5C18AEF70917B03C581810566130601
:102BF80006C89145EF00A0711345440035B7373535
:102C0800000039711305E5B006DE22DC26DAEF0094
:102C1800F02693848181D14705442380A400231A98
:102C2800F100100893074006854513055030231E10
:102C3800F10023088100EF70D14E375600201306AB
:102C4800C6C7B14513057030EF70B14D1386C18109
:102C58008D4513056030EF70D14C50088945130538
:102C68001031EF70114C7008894513052031EF7051
:102C7800514B37560020130646C6D5450145EF305F
:102C8800D055930500050D45EF20C01893050005A4
:102C98001145EF2020187008914513057040230452
:102CA8008100230681002308810002CE230A010047
:102CB800EF60B1153000854513050040EF60F11451
:102CC8007000854513051040EF60311450088545A4
:102CD80013052040EF607113100885451305504017
:102CE800EF60B1127D55EF30305D7D55EF60507B60
:102CF8007D55EFF0CF9289472304F1008D472306D5
:102D0800F10091472308F10003A781869387818604
:102D180083C7470002CE7008D14501453ACA230C43
:102D2800F100230E810002D002D202D402D6EFF0C5
:102D3800AF94300085450545EFF00F947000854548
:102D48000945EFF06F93100885450D45EFF0CF92D8
:102D5800500895451145EFF02F9241679387C18A36
:102D6800791798C323A2070013854181EFF0EF8FED
:102D780003C5040085454929F2506254D2542161A3
:102D8800828023AC05FE1C4191E7010001000CC1C3
:102D98008280BA8703A787FF6DFF23ACB7FE8280C6
:102DA8001DC18346E5FF1307F00F9147639EE600B8
:102DB800411106C697200020E78020C6B24081470F
:102DC8003E854101828095473E85828001E9014523
:102DD80082800145B240224441018280411122C4CF
:102DE8002A84210542059305D004418106C697200F
:102DF8000020E780E0B871DDFD572320050023128D
:102E080085002303F5002105F1B71387418B1C4387
:102E1800411122C426C24AC006C601440149BA84E7
:102E280089E7A165992D0DC401A803C7E7FF6318B9
:102E3800A7021DC8A165C92E9840832784FF631780
:102E4800E40223AAF18AFD57232C04FE230FF4FE83
:102E58002285B2402244924402494101828011E015
:102E68003E8983A787FF6DBF3E84E5BF232CF9FE0B
:102E7800D9BFA9C9411122C406C62A849747002090
:102E880083C7D7C32E856368F400193F0D45B24048
:102E980022444101828083A785FF99E703C7E5FFA4
:102EA8009307F00F6305F700E53D1545CDB7238F70
:102EB80085FE1385418BF13522852244B240A165F8
:102EC800410199A61545828023AA018A82809387A9
:102ED800818C9C4399E33E85828003D72700631643
:102EE800B70003C70700E308A7FEDC47E5B74111B1
:102EF800939705014AC006C622C426C2C1872E89F7
:102F080063DE0700193711C1613D21653345A9000A
:102F1800B24022449244024941018280AA86014576
:102F2800E5D901443D47B3578940858B95CB9387B5
:102F3800018C8443BD4791E28147A2978E070545DE
:102F4800BE9433158500131405019C40C840418088
:102F5800829723A0040023A20400334524014DBF17
:102F68000504E312E4FC0144CDBF97470020938792
:102F780027B19C53411122C406C61384018295C708
:102F8800829723A0A1820840B74703009387D73FC1
:102F98003305F502B7A72600938737ECB2402244E1
:102FA8003E9523A0A1824101828097470020938704
:102FB800E7B018409C4BBA9723A0F182E9B79387F2
:102FC800818B90439746002083C656AF814713F7FD
:102FD800F70F6361D70A174700200347D7C3914704
:102FE80063E1E70A9747002083C787C7918BD1EB36
:102FF8000111680006CE22CC26CAEFC0D0557D57F5
:103008006308E50EB24717440020034494A863748C
:10301800F40C97470020938767AAC4479747002076
:1030280083C747A76386E406858BA9CFD147B384B6
:10303800F4026372940A97100020E7806020B24778
:1030480063F3F400A68717440020034494A4818FF7
:103058003384A70097470020938787A28387470177
:1030680063CE0702B707C0A8636AF402B7074057E0
:103078003E942DA085071397170032970357E7FF53
:1030880039D7828093079002B384F402858055B7BC
:10309800E207E18763D607043304854003D5E18B53
:1030A80097100020E78040F219E03704C0A897473E
:1030B80000209387E79CDC532285829709ED974788
:1030C80000209387E7B49C4F99C7EF202151EF2048
:1030D800F134EF200145F2406244D2440561828018
:1030E800E37C85FAB707C0A8338487402A947DB764
:1030F800974700209387879CDC47E38EA7FC1747F8
:1031080000201307E79783464701BA84858A9DC63E
:103118005144338487029747002083C79797E3FC7D
:1031280087FA97100020E780A0119747002083C7EF
:1031380057961D8C2A94838744011DB71304900267
:10314800338487020580C1BF2A9609E58280050578
:10315800A30FB5FEE31DC5FED5BF81473307F500B4
:103168000307070019E33E8582808507C5BF011163
:103178002E8626CAAA84131506019305F0044181F8
:1031880022CC06CE32C697100020E780607F2A84C2
:1031980019C53246A68597100020E780E0E422850D
:1031A800F2406244D2440561828081476314F6008C
:1031B800054582803307F5008507B386F500034788
:1031C800070083C6F6FFE383E6FE01458280930786
:1031D800F6FFBE952A966313C5008280FD1583C746
:1031E80015000505A30FF5FEFDB7814711E9014557
:1031F80082803307F50003470700E31AB7FE850707
:10320800E319F6FE054582809747002083C7178B90
:10321800637FF5001387818B9317150008433E954C
:1032280083570500DD8D2310B500014582800D45CB
:103238008280FD570111174700202327F7889387BD
:10324800818C22CC804326CA4AC84EC652C406CEB8
:1032580056C22A8981449749002093896982174A6E
:103268000020130AAA85184481476374E900B3074C
:10327800274103A749021CC409CB0327CA0063F6E8
:10328800E700174700202321F784A1E38355240092
:103298009DE55C44A1E423A4F18C832AC400228523
:1032A80097100020E7806077568455FCF24062440E
:1032B800D2444249B249224A924A05618280034572
:1032C800040099375C4081CB1CC483572400F1D398
:1032D800A2844044D9BF1C44CDDFC5BFDCC475BF40
:1032E8009737002083C7977D6371F5021387818B19
:1032F80093171500084393C5F5FF3E9583570500BE
:10330800FD8D2310B500014582800D4582809737D9
:10331800002083C7B77A6364F500014582804111B4
:1033280022C426C24AC006C62A842E89B284EFF077
:103338001FBA01C504C505452DA0936504F0C20553
:10334800C181414597100020E78080630DE19737E0
:1033580000209387E7729C5B81C7A28511458297FD
:103368000145B24022449244024941018280938738
:10337800818C9C438DE323A4A18C854723260500DB
:1033880004C52311250123008500A300F50023228D
:10339800050055B7BA87D84775FFC8C7F9BF45C5EF
:1033A80039715AD0138B018C22DC26DA4AD84ED6D2
:1033B80052D45ECE66CA6AC86EC606DE56D262CCE3
:1033C8003689328AAE89AA8401445A8DB94D854B13
:1033D800F94C03270B00131C3400937AF40F6297FF
:1033E8001C43A9EF13B5FA0013451500B3978B00DA
:1033F80063F65D01930714FFB397FB0093950701EC
:10340800C181528629371DC983270D000145E297DE
:1034180084C323A237016304090023005901F25031
:103428006254D2544259B259225A925A025BF24B10
:10343800624CD24C424DB24D216182800504E31AA0
:1034480094F92145E9BF09458280411122C426C269
:103458004AC006C6AA842E893284553DCA85268567
:10346800EFF0FFA609C940C10145B2402244924489
:103478000249410182802145CDBF411122C426C2A3
:103488004AC006C6AA842E89EFF07FA42A8419C1EF
:1034980023110500CA852685A135014511E0194586
:1034A800B240224492440249410182807547636BCD
:1034B800A7041387018C1443411126C293143500C5
:1034C800A696944222C406C6AA873A84094595C698
:1034D80013B5F7003947134515006373F700C5178F
:1034E8008545B395F500C205C181413F1C400145A2
:1034F800A69723A0070023A20700B24022449244C3
:103508004101828009458280411106C6EFF03F9C47
:1035180009C50845B240410182800145E5BFF5472C
:1035280063EDA7049387018C9C4313173500BA9762
:103538009843894721C7011126CA06CE9334F5005E
:1035480022CCB94793C4140063F3A700451505447A
:103558003314A400420441802EC62685A2856D3707
:103568008947324609C5A285268555338147F240E9
:103578006244D2443E850561828089473E858280C7
:10358800239EA18A239FB18A8280411106C623A265
:10359800A18C0295B2409737002023ABA752014572
:1035A80041018280994763E9B7008A05973700206F
:1035B8009387C752BE9588C18280411106C622C42E
:1035C80026C2EF70416F71468145173500201305FB
:1035D800E550EFF07FB7173400201304244E13068C
:1035E800000222858145EFF03FB623A4018C23A277
:1035F800018C9737002083C7674A13D527008D8B26
:103608003E958D473305F50299479305101093842D
:10361800C18C35051375F50F2301A4003305F50298
:103628001305050F97100020E780803523A0A18C93
:10363800834724001305050F88C08A073E9523ACED
:10364800A18AEFF07F88A9268347140098401706BF
:1036580000001306068A93962700BA9690C29386AE
:103668002700850793F7F70FA300D400B240224440
:103678008A07BA9790C39244410182809737002005
:1036880083C7D743173700200347674363F1E7022F
:103698001387C18C18439386170017360020A30F91
:1036A800D64093962700369708C33E8582809307B5
:1036B800F00FE5BF1C416387071441777D8FB7067C
:1036C800002089476311D71403574500630D07127B
:1036D800411122C419462A849305F00F590506C6DC
:1036E800EFF0BFB005478D476309E5101306C00327
:1036F8008145173500201305A538EFF0FFA4130600
:10370800C003A285173500201305853797100020C0
:10371800E780808D173700200357473797370020F9
:103728009387073619E71307002097360020239F51
:10373800E634173700200347873511E705479736E2
:1037480000202386E634173700200347573411E753
:103758006D4797360020A38CE632173700200347C1
:10376800273311E71547973600202383E6321737AA
:1037780000200347F73111E7054797360020A38952
:10378800E630173700200347F73019E703C707016A
:1037980097360020A380E630173700200347672FAD
:1037A80011E75147973600202385E62E173700206A
:1037B8000347E72E19E71307800297360020238076
:1037C800E62E173700200347D72C19E71307D00236
:1037D80097360020A38FE62A0347D40111E709474B
:1037E80097360020A38CE62A9C5791C78297973773
:1037F80000202398A72CD1338147B24022443E852C
:103808004101828089473E858280011122CC06CE03
:103818002A842EC6EFF06FF5B245F240818D33A5AC
:10382800A502229562441375F50F05618280011186
:1038380022CC06CE2A842EC6EFF02FF3B245F240F2
:10384800818D33A5A5022295624442054181056117
:103858008280011122CC06CE2A842EC6EFF0EFF02A
:10386800B245F240818D33B5A502229562440561C7
:103878008280973700209387A720985725C3411146
:1038880022C426C206C6BE840297173700200357F3
:1038980047232A8441C7BA876373A700AA87C20748
:1038A800C183BA866373E400A286C206C182958F7B
:1038B80051476355F706DC5491C3829785471737FC
:1038C8000020230BF734EF20A12197370020239AFB
:1038D800871EB240224492444101828097370020DB
:1038E80083C787339DE7973700209387673283C75D
:1038F8009700850793F7F70F17370020A30EF730C7
:10390800A18B9DC78547173700202317F7306F20F5
:10391800E12297370020A3810730D5BF97370020D1
:1039280083C7872FDDD72244B24092444101C5B7EF
:103938008280973700209387A714D857011122CC8B
:1039480006CE3E8401C72AC60297324511CD23A868
:10395800A18C1715002013052590EFF01FC3F24026
:1039680062440145056182808307440163DD0700E5
:103978009737002023A0071697170020938767889A
:1039880023A8F18CF9B7971700209387678BCDBFD1
:10399800011122CC173400201304840E084406CEEB
:1039A80026CA19E50545F2406244D2440561828081
:1039B8005C58EDDB185C7DD770008545829718440C
:1039C800B247E301F7FE8357C400173500200345CB
:1039D800050C9305E0043305F50297340020938421
:1039E800E40D4205418197100020E78060F9173700
:1039F80000202323A70E5DD59737002083D707091A
:103A0800173600200346A6083306F6029305F00F82
:103A1800EFF08FF3D04C08449737002083D707077F
:103A280008C29735002083C58506B385F5021C5C5E
:103A380089818297C84C97100020E78000FE0145D5
:103A48009737002023AA0708B9BF411122C41734A9
:103A580000201304E4021C4426C206C69734002042
:103A68009384C405ADCB1C5CBDC7DC4C8DE7835784
:103A7800C40017350020034585019305E00433058C
:103A8800F5024205418197100020E78060EF9737E3
:103A9800002023A3A704C84C1DCD9737002083D747
:103AA800E7FE17360020034686FE3306F602930526
:103AB800F00FEFF06FE9D04C08449737002083D718
:103AC800E7FC08C29735002083C565FCB385F5027D
:103AD8001C5C89818297C84C09C997100020E7802F
:103AE800C0F39737002023A907FEB240224492442E
:103AF800014541018280011126CA97340020938430
:103B0800E4FB22CCC04C4EC652C456C206CE4AC8AC
:103B1800AA8AAE89328A31EC17390020130949F68E
:103B28008327890099E3A94471A08357C9001735F1
:103B380000200345C5F59305E0043305F502420569
:103B4800418197100020E780A0E32A8441C583279C
:103B58004903C9C39735002083C565F3173700208B
:103B68000357C7F2B385E5022A86032589008981B0
:103B7800829791451307A005898193972500A297FD
:103B880083C607006395E60483C61700639E560341
:103B980085058A054E86A295528597000020E78004
:103BA800A044DC4C8144638787002285971000205D
:103BB800E780A0E6F240624426854249D244B249F1
:103BC800224A924A0561828083D5270075B7DC4C6A
:103BD800E38B87F4228597100020E78000E4A1B7E3
:103BE800973700209387C7E9984729CB9C5FB9C7C7
:103BF80085466315D504411122C4173400201304E7
:103C0800E4EB504C06C61DC69736002083D606E85E
:103C18009735002083C5A5E7B385D5023A85898104
:103C28008297484C97100020E78020DF97370020C4
:103C380023A407EAB2402244410182808280973758
:103C480000209387A7E7D84F011122CC26CA4AC87B
:103C580052C406CE4EC62A89AE8432843E8A35E7DF
:103C6800973900209389C9E183D7C9001735002007
:103C78000345E5E19305E0043305F502420541817A
:103C880097100020E780C0CF9737002023A6A7E42D
:103C98002A8611E92945F2406244D2444249B24990
:103CA800224A0561828003A5890005C183A74903CB
:103CB80089CF9735002083C585DD17370020035746
:103CC800E7DCB385E502898182970325CA0191461D
:103CD8001308A005FD5593D72600C207C183139783
:103CE80027002A9703460700631B0603834817002B
:103CF8000356270063932803B306D64063CD960086
:103D080085078A073E952686A28597000020E780CA
:103D1800A02D014549B7A300B700B2866DBF17367D
:103D280000200356A6D69735002083C545D6B3850F
:103D3800C502338696001106E3EEC5F413863400F7
:103D4800719A1106B29623000701A30027012311D7
:103D5800D7007DB797370020938747D6D44F8DCEAD
:103D680091471306A0059305F00F89838A07B69734
:103D780003D7270003C5070009830A073697631D81
:103D8800C500034517006316B500035727002391A4
:103D9800E70083D72700D1BF01458280011106CEF5
:103DA8002EC6EF80800001C9B245F24003552500B8
:103DB80005616FB0E035F240494505618280A38E08
:103DC800018E238E018E23A2018E23A4018E23A6A9
:103DD800018E23A8018E23A0018E23AE018C973774
:103DE8000020938767D13707B40098C33747A000EE
:103DF800D8C3370710009306070A94C7B7065000C0
:103E0800C106D4C7930607054107D8CB3707D007A3
:103E1800410798CF37070F0098D337C70700130714
:103E280007B8D8D3416794CB93060701130717F84F
:103E3800D8D7417723AE070094D798DB8280011149
:103E480026CAAA84214522CC06CE2E8432C636C480
:103E58003AC2EFE0BFF71DC9A246124732469307A0
:103E680000FD2300F5009947A30095002301F50004
:103E78002303D500A303E5002312C500AA852285E4
:103E88006244F240D24405616FE0BFFEF2406244F2
:103E9800D2440561828023A2A18E828023A4A18EB0
:103EA800828023A6A18E828023A8A18E8280011100
:103EB80022CC4AC806CE26CA2A890144B3048900FE
:103EC8006368B400F2406244D2444249056182808A
:103ED8002EC6EFF08F8993170501C183A183B245E0
:103EE8002380F4009307140093F7F70F850463F910
:103EF800B700CA9709042380A7001374F40F7DBF85
:103F08003E847DBFC16717350020035585C2FD1764
:103F18006302F502411103C601999385418F06C6D4
:103F2800EF707052B240FD57173700202313F7C0C7
:103F380041018280828009C925151375F50F133553
:103F4800850E134515008280014582802380050077
:103F5800F94763E2C708797122D426D24ECE56CAF1
:103F68005AC806D64AD052CC5EC63684B289AE8AC2
:103F78002A8B814463FF3405B307940003CA070002
:103F8800138914001379F90F63050A04B3072A018A
:103F980063C1F904B307240183CB07005E85613F41
:103FA8000DC99307FAFF2380FA0063906B0313058A
:103FB80019002295B250225492540259F249624A89
:103FC800D24A424BB24B45618280D29493F4F40FAB
:103FD80055B70145C5B701458280411126C2AE8457
:103FE80022C49737002023ADC7B49737002023A7F2
:103FF800B7B49737002023A1A7B42A844146930574
:10400800F00F26854AC006C60549EFF00F9E631ECD
:10401800250397370020938767B1884BC145413DF9
:1040280041469305F00F2285EFF02F9C85446316D7
:104038009502224497370020938747AFB2409244B5
:104048000249C847C14541019DB54146814526857C
:10405800EFF0AF99E31625FD6DBF414681452285F6
:10406800EFF0AF98E30795FCB2402244924402492E
:1040780041018280411122C426C22E84AA841306DB
:104088000002814517350020130545AA06C6EFF042
:10409800AF8B97370020A38C97A8A3898198EFB09E
:1040A800A008854719C181474945B24022441737BE
:1040B8000020230DF7A6924441018280814781CDDB
:1040C80019C98547631BF50083C7550093E707FCAB
:1040D800A382F50085473E85828089476317F500EE
:1040E80083C7550093F7F703E5B70D478547E314F2
:1040F800E5FE03C755001377F70313670704A38288
:10410800E500D1BF81478DC105C103C7550093069E
:10411800000C85471377070C6308D7009306000443
:104128008D476303D70089473E858280411122C4A9
:10413800005D06C626C21DC8AA84085009C5971086
:104148000020E780808D485009C597100020E7803F
:10415800C08C085409C597100020E780008C228580
:1041680097100020E780608B23AC0402B240224401
:1041780092444101828009ED9737002083C7279B2D
:10418800173500201305059C81CB1385418D82804E
:10419800173500201305059B82801735002003453D
:1041A800059982809737002093874798C84782806F
:1041B8009737002093878797884B8280973700200E
:1041C8009387C796DC4B8843828097370020938774
:1041D800E795D84B1C4385071CC3173500200345BA
:1041E80015959307F00F6305F50091656FF0CF8182
:1041F8008280011122CC06CE2E8432C6EF70304A5E
:104208009147B245631FF5009387018F9C438DC387
:1042180003A30700630E030022856244F240056190
:1042280002839387818E9C4381C703A34700DDB730
:10423800F2406244054505618280011122CC2A843E
:104248000355450006CE26CA4AC84EC6EF70702DE3
:1042580035C52A89834405008349C500C13D4A857F
:10426800EF80701D03554400EF70F03E83C7C18F87
:10427800B1CB6399970483C5D18F2685EFF01FB220
:1042880019E1238E018E03554400EF705041914788
:10429800631FF500035744009737002083D76789C9
:1042A8006317F700FD57173700202314F788F240EB
:1042B8006244D2444249B2490561828081499304EB
:1042C800F00F6DB79307F00FE38FF4FA834664009D
:1042D80003564400034524004E87A685EFF03FB6F9
:1042E8005DB779715EC6AA8B2E8552CC56CA5AC85C
:1042F80006D622D426D24AD04ECEAE8A328B368A01
:10430800EF7030226DC1045D2A89F1CC9C50614563
:1043180099C3130540039C5481C751054205418147
:1043280063050A00710542054181DC5081C75905C2
:1043380042054181EFE09FA92A8455C56146814520
:10434800EFE09FE09729002083C9097E6394090064
:1043580083490900930700FD2300F400A947A3003F
:1043680074012301F400230364018C5023125401C7
:104378001305840191C908C47146930A4403970040
:104388000020E78060C656858C5491C948C45146C0
:10439800930A450197000020E78000C55685630C05
:1043A8000A0008C87146D285930AC5019700002003
:1043B800E78080C35685CC5099C548C859469700B0
:1043C8000020E78060C2A2854E85EFE09FAA2254B4
:1043D800B2509254F249624AD24A424BB24B4A8591
:1043E80002594561A1B3B250225492540259F2497C
:1043F800624AD24A424BB24B4561828001114EC695
:10440800AA892E854AC806CE22CC26CA2E89EF70E4
:10441800501131C59724002083C4047199E0834466
:1044280005001945EFE09F9A2A8415C98145194668
:10443800EFE09FD1930700FD2300F400B947A300E4
:1044480034012301F40023122401A2856244F240BE
:104458004249B2492685D24405616FE09FA1F240E6
:104468006244D2444249B2490561828039715ECEC4
:10447800AA8B2E8526DA4ED652D456D25AD006DECC
:1044880022DC4AD8AE84328BB68A3A8ABE8942C6C2
:10449800EF70300931C92A894145EFE03F932A84FA
:1044A80021C541468145EFE03FCA17250020034555
:1044B800A56719E103450900930700FD2300F400EF
:1044C800BD472301F400B247A300740123129400EE
:1044D80023046401A304540123054401A305340102
:1044E8005CC4A285EFE0FF98F2506254D25442595E
:1044F800B259225A925A025BF24B21618280797139
:1045080026D2AA8439454AD04ECE06D622D42EC603
:10451800B2893689EFE09F8B21C1B2459307000D20
:104528002310F500B1472A842312B5002301F500B2
:10453800CE851905194697000020E780E0AA2306D2
:104548002401A2852254B2500259F24913F5F40FFE
:10455800925445616FE0FF91B2502254925402592F
:10456800F24945618280172700200347575C93076B
:10457800F00F630DF706411126C2AA84394522C4FB
:1045880006C64AC0EFE09F842A8439C9930700FD14
:104598002300F500A30095002301050097250020BE
:1045A8009385455A0D05194697000020E780C0A35A
:1045B800172900201309895783578900A2851725D1
:1045C80000200345D5562315F40083471900230618
:1045D800F4002244B2409244024941016FE07F89CD
:1045E800B2402244924402494101828082800111F2
:1045F80056C2AA8A314526CA4AC84EC652C406CEF1
:1046080022CCAE84328AB6893A89EFE02FFC29C9D8
:104618002A842685EF70E0701DCD034505009307B9
:1046280000FD2300F4009D47A30054012301F4007A
:104638002312940023134401231434012315240165
:10464800A2856244F240D2444249B249224A924A7F
:1046580005616FE01F82172500200345554DC1B73E
:10466800F2406244D2444249B249224A924A056120
:104678008280397162CC2A8C594526DA4AD84ED6BE
:1046880052D456D25AD05ECE06DE22DCAE8432C672
:1046980036C4BA8B3E8BC28A468A835901040349C1
:1046A8004104EFE0AFF235C53246930700FDA2465C
:1046B8002300F5009547A301C500A3008501230148
:1046C800F5002A8419461105A9C2B685970000206D
:1046D800E780809123066401230A240123157401CD
:1046E800231754012318440123193401A285625465
:1046F800F2504259B259225A925A025BF24B624C1A
:104708002685D25421616FE0CFF68145EFE0DFA323
:10471800D1B7F2506254D2544259B259225A925ADD
:10472800025BF24B624C216182809727002083C78D
:1047380007408DCB4111AA8519461385418D06C6C0
:1047480097000020E780408A9385418D1725002037
:104758000345E53DEFF09F96B2401385418D410139
:104768006FA0501D01458280411106C622C426C291
:10477800172700200347B73B9307F00F6308F70498
:10478800AA842945EFE08FE42A8429C1930700FD14
:104798002300F500A1472301F500A3009500972702
:1047A80000209387A73883C727009385418D11057B
:1047B800A30FF5FE194697000020E780E082A28546
:1047C800172500200345B536EFE0AFEA172700208C
:1047D8000347073685476315F7029387C18E9C43C5
:1047E80081C79C4791C382972244B24092445D6638
:1047F80003C5019913060670914541016FE0FFC496
:10480800B2402244924441018280797122D406D672
:1048180026D24AD04ECE52CC094445C92A890355DE
:1048280005002E8A5144EF70C04FAA8459CD83C722
:104838003199FD1793F7F70F054749446377F70850
:104848000347C500A1476314F70063100A089C5C7E
:104858004544A5EF9165938545711305C0029700FE
:104868000020E780E01188DCAA894D4439CD130681
:10487800C0028145EFE05F8D8357090093864900A8
:1048880036852391F90071469305490036C697F09D
:10489800FF1FE780607589472380F90003C5C400BE
:1048A800B24603560900611583C5019913351500F1
:1048B800EF90F0522A8463060A00D2852685EF809D
:1048C800A06201C42685EFF07F862285B25022546B
:1048D80092540259F249624A4561828083C73199EC
:1048E800FD1793F7F70F05476378F708894751C60F
:1048F800011122CC26CA4AC84EC652C406CEAA897D
:10490800368AB2842E89EF70C0412A84D14729C9DA
:10491800485509C597000020E7802010F1452685F5
:10492800EFE0FF8448D4CD4705CD8346C400214736
:104938008147639FE600630D0A000347A5010356FC
:10494800050193062501AA854E85EF70D051AA87E7
:1049580003474400630F0900136767002302E4005C
:10496800F2406244D2444249B249224A3E85056136
:10497800828013674700DDB7C9473E858280E147DB
:1049880063EBA700972700209387071706053E9536
:1049980003550500828041657D158280011122CC76
:1049A8002A842E8526CA06CEAE84EF7080370DCDB8
:1049B800B7470F009387F723094563E287028145CC
:1049C8000A854146EFE04FF8A685231081000A8545
:1049D800418023018100A3010100EF90B022F24041
:1049E8006244D244056182804945D5BFA388A19815
:1049F80082806F909037797152CC2A8A328522D47E
:104A080026D24AD04ECE56CA5AC85EC606D662C408
:104A1800AE8BB28A368BBA843E89C2894684EF70DF
:104A2800403015C92A8C63140A0213774B00834758
:104A3800450015CF93E727012302FC008DEC631C8A
:104A48000902639A090205E8ED9B2302FC00832B07
:104A58008C03639F0B06B250225492540259F249B8
:104A6800624AD24A424BB24B224C45618280F59B46
:104A780093E70701D1B793E747002302FC0001CC75
:104A88001C484146A2852324FC0213058C0197F09B
:104A9800FF1FE780605563910B02D5D80325CC0230
:104AA80009C597000020E78040F7F1452685EFE02B
:104AB8000FEC2326AC0261BFE30B09F80325CC02F7
:104AC80009C597000020E78040F5F1454A85C5B73C
:104AD8009DC483A70B0299EB916593853571714548
:104AE80097000020E780C0E923A0AB0203A50B02D2
:104AF80019C57146A68597F0FF1FE780E04E6388C9
:104B0800090283A74B0299EB916593852571594555
:104B180097000020E780C0E623A2AB0203A54B0262
:104B280019C55946CE8597F0FF1FE780E04B1DC495
:104B380083A78B0299EB9165938515715145970071
:104B48000020E780E0E323A4AB0203A58B0219C58C
:104B58005146A28597F0FF1FE78000492254B250C2
:104B68009254F249B24B224CCA865A860259424B99
:104B7800D6855285D24A624A45616FF08FF6011197
:104B880026CA52C406CE22CC4AC84EC62A8AAE8449
:104B9800EF70201925C5AA893945EFE02FA32A848B
:104BA80031CD17290020034929F86314090003C9E6
:104BB80009009307000D2310F400AD472301F4000A
:104BC8009385690013053400194697F0FF1FE780A5
:104BD800A04193F71400858085882306F400A30676
:104BE800940023154401A2856244F240D244B2499C
:104BF800224A4A85424905616FE0AFA7F240624404
:104C0800D2444249B249224A056182809387C18DC4
:104C1800884301CD411106C697000020E780E0DFF8
:104C2800B24023AE018C410182808280011106CE00
:104C380022CC26CA4AC82EC6EF70A00E39CDB2457E
:104C480017290020034949EEAA840CD563140900EA
:104C5800034905004145EFE06F972A841DCD93076E
:104C6800000D2310F500A5472301F50083C7540064
:104C7800938564001105A30FF5FE194697F0FF1FF1
:104C8800E78080369C54A285F2405CC46244D244DA
:104C98004A85424905616FE0CF9DF2406244D244A3
:104CA800424905618280797122D406D62A842EC6AB
:104CB800EF7020070DCD8346C5001147AA874945E7
:104CC8006393E6029C5FB24599C383C567010808F0
:104CD800EF80802A97960000938606B010088945D1
:104CE8002285EF70101DB2502254456182805145D3
:104CF800DDBF83C73199FD1793F7F70F0547637A2F
:104D0800F704894721CA411122C426C24AC006C6EF
:104D1800B2842E89EF70E0002A84D14705C5630864
:104D280009008347450093E727002302F500414621
:104D3800A6851305840197F0FF1FE780E02A9C48A9
:104D48001CD48147B2402244924402493E85410125
:104D58008280C9473E858280797122D406D62A840A
:104D68002EC6EF60107C01CDB2452285230EB1001E
:104D78006C08EF80E013B25022544561828051459F
:104D8800DDBF6F708007C1671387E7FF6394E50293
:104D98009387818E9C4391EB494582804945B24077
:104DA8002244924402494101828003A30700E3059B
:104DB80003FE0283411122C426C24AC006C6FD175B
:104DC8002A892E84B2846395F5029387818E9C4349
:104DD80091CB9C4381CB829711E5238E218FA38EA3
:104DE800918E75BFA6854A85EFE05FFB4DF9F5B753
:104DF8002E85EF6010735DD1834705000D45E39064
:104E080027FB22852244B2400249A68592444101EB
:104E18006FA00030E14763E8A70441677D17894721
:104E28006384E504411122C426C206C6C547AE8480
:104E38002A84631AF5001305C0033385A5024205C9
:104E48004181EFA0E0341315140017240020130447
:104E5800A4CA2295B2402244231095008147924467
:104E68003E854101828089473E858280011106CEB8
:104E78002AC6EFE0DFF4EF102007EF00A072EF5032
:104E88009111324597270020938747CA130700F0EE
:104E98002391E700238207007D5793870199A38018
:104EA800E7002380A700F240954505616F50B009DF
:104EB8005D7193970501CAC086C6A2C4A6C24EDE1C
:104EC80052DC56DA5AD85ED662D466D26AD0C18726
:104ED8002E8963D0074C03C50199EFD01FF389646D
:104EE800416A856A797B2A84938BD4007D1AA50A46
:104EF800691B15E021653345A900B6402644964450
:104F08000649F259625AD25A425BB25B225C925C01
:104F1800025D61618280834704001307200A639D54
:104F2800E70003552400172C0020034C5CC02286A0
:104F3800D285EFF00FAC3DAA1307100903CC1199E5
:104F48006397E716834714001547639EE700228599
:104F5800EFF0AFAE2285EFD0BFE403C50199EFD0E3
:104F6800DFEA2A8479B739476399E716035544007D
:104F7800631B55050C4483C90500639D090085051D
:104F880091C91946172500201305C5BB97F0FF1FC7
:104F9800E780800517270020034747B9854763182E
:104FA800F710638A090097270020238107B84E85E8
:104FB800EFF06FDB45B78947172700202308F7B6BE
:104FC800EFA0001741BF93872400631AF5068329D1
:104FD8008400638E090C83C709008DE383C7290009
:104FE80003C71900A207D98F172700202314F7B485
:104FF80083C7390017270020A30AF7B21727002014
:105008000347C7B289476314F70A83C7090081CBEE
:1050180097270020238C07B003C5090051BF8D478F
:105028009725002083C595B017250020035585B026
:1050380017270020230CF7AEEF50E073F1BF9387DA
:1050480054006318F5001C4403C50700EFF0CFF1C6
:1050580011B7B3076501C207C1831147636FF70032
:105068009387C18E9C43E38707EE9C43E38407EE56
:1050780022858297E31005EE1DA89387B400631F6D
:10508800F5009387418E9C43E38607EC9C43E383BA
:1050980007ECA2851385B4008297E9BF9387C40003
:1050A8006310F5021C4483C70700E38507EA9307EA
:1050B800F00FE301FCEAA2856285EFD09FDB71BDAA
:1050C8009387E400E315F5FE9387818E9C43E38381
:1050D80007E8DC43A285E9F3B5BD3D476397E704DC
:1050E80003554400E30275FF93879401E30EF5FC32
:1050F80093873401E31DF5FA9727002083D767A328
:10510800639E47019387818E9C43E38507E4DC43D4
:10511800E38207E4A28513853401BDBF9387018F1D
:105128009C43E38907E29C43E5B71307E003E39058
:10513800E7F88347240005476396E70E8347640032
:10514800138DC18DF1E383270D00D5CB03CC070068
:10515800A14903457400930C8400E685EFE09FFAAB
:1051680083474401A303A400835804010358E400BF
:10517800035744002A86034534003EC2835724015E
:10518800E686E2853EC0CE87EFF0AFCE8347340097
:1051980095E7DD47835804010358E400834674000B
:1051A800835544003EC2835724013EC06687CE879C
:1051B80005466285EF603064A301A40083270D00D3
:1051C80081C71145EFF09FA403C5C18FE30405D83B
:1051D80083C5D18FEFE09FBCE30E05D6834634002C
:1051E80093071003638AF600035644004E8783C56D
:1051F800C18F3685EFE0BFC4238E018EA1BB172C6B
:105208000020034CDC92A9B79387C18E9C43172CCE
:105218000020034CDC9191498DDFDC439DDB014587
:10522800829705BF2947639DE70883476400138D6C
:10523800C18DADEB83270D00ADC303CC0700A14999
:1052480003457400930C4401E685EFE0BFEB834708
:105258000402A303A4008358C4010358A4010357FC
:1052680044002A86034534003EC28357E401E6869B
:10527800E2853EC0CE87EFF0CFBF834734009DFF65
:10528800DD478358C4010358A4018346740083553D
:1052980044003EC28357E40109BF172C0020034C89
:1052A8001C8971BF9387C18E9C43172C0020034C27
:1052B8001C889149D1D7DC43C1D70145829749B7AA
:1052C8000947639DE7009387418E9C43E38407C8A1
:1052D800DC43E38107C822858297ADB92D476399DE
:1052E800E7009387418E9C43E38607C69C47D5B762
:1052F8000D476397E70022868D450355440015B98D
:1053080019476395E7069305610113051031EF50BE
:1053180081532C0813052031EF50E15203566400E5
:10532800835781010355440063E8C700835684000E
:105338000357610163F7E60093050002EF9050649C
:1053480011B96374E6002313E40063F4D70023144F
:10535800F4000357C4008356A40003568400835501
:10536800640001488147EF907061EDB61D47E390F6
:10537800E7D403574400E3ECE7D29727002093874C
:10538800278506073E9783576400F1172310F70017
:1053980039BB93F7150081CF9387418E9C4389C70A
:1053A800DC4399C30145829713451900B9B693F7B1
:1053B800250081CF9387C18E9C4389C7DC4399C35D
:1053C80005458297134529000DBE93F74500014511
:1053D800E38507B29717002083C79775A5C7FD1700
:1053E80093F7F70F17170020A304F774A1EF93871B
:1053F800018E9C4391CF854717170020230AF77227
:105408009387C18E9C4389C7DC4399C3054582971E
:105418009717002093878771C8472C08EF80B067DB
:105428002808EFF08FB0971700209387E76C83D791
:105438002702914503C5019917170020A30AF76EA3
:10544800EFE0AF83134549004DBC411122C42A84C3
:10545800554506C6EFF0AFD2B335A00022852244E9
:10546800B24041016F90904E797122D406D68D4793
:105478002E84631FF50003D7A50083D6850003D6C5
:1054880065000345340083D54500EFF04F9609A821
:1054980089671387D7006310E50403C5250019E55C
:1054A8008547B25022543E85456182809387C18DDD
:1054B8009443FDD603C6360083C50600814802C260
:1054C80002C00148814701479106EFF08F9A0545D0
:1054D800EFF0CFF3F1B71387E700E303E5FC138799
:1054E8003701631AE50003C525005DD901478146E8
:1054F8000146814559BFE507E304F5FA41677D1781
:105508008147E310E5FA03C75500C947E31AF7F8DE
:1055180083D6E50003D6C5000355840083D5A500CE
:10552800EF90904721C15D45EFF06FC53335A0007E
:10553800231EA10083454400035524007008EF6032
:10554800E0718357C101A9FF0357E4008356C400E3
:105558000356A40083558400035524000148EF90A6
:10556800F03F3DBF8547231EF100E9B7C1671387A8
:10557800E7FF639DE5009387C18D9C4395C383C76F
:1055880007000D47639CA7006F90903CFD174947A3
:105598006396F5009387C18D9C43FDF73A85828019
:1055A8004947EDBF2384019023A8019023A60190C9
:1055B80097170020938787591707000013070724B8
:1055C80098C31707000013072727D8C31707000039
:1055D8001307475998C793870190170700001307C7
:1055E80027F998C317070000130747E8D8C3828034
:1055F800011122CC138401911C4006CE26CA4AC848
:105608004EC652C499CF2E8AAA8401490840631213
:105618009902630C0A0497F0FF1FE780004023A853
:105628000190F2406244D2444249B249224A05619B
:10563800828093194900B3073501884709C997F053
:10564800FF1FE780803D1C40CE9723A407001C4025
:10565800CE97C84709C997F0FF1FE780003C1C4058
:10566800BE9923A60900050955B745DD13964400E0
:105678008145EFD07FAD144081477D5613F7F70F72
:10568800E37197FA1397470036972300C7008507F9
:10569800F5B7011152C4138AC19083270A0006CEB8
:1056A80022CC26CA4AC84EC656C25AC0C9CF2A8971
:1056B800014419ED93870191944399CA03C68190D7
:1056C8002A8481479305F00F13F7F70F6367C7081C
:1056D800131534002105EFD06FEFAA8401E92145A5
:1056E800EFD0CFEEAA8421C501444D49930700FDB0
:1056F8002380F4008547A38024012381F400A3813B
:1057080084005DC41389840023A224018149938AFB
:105718000191130BF00F83C7819063F3F90031E80F
:1057280083270A00A68503C50700EFD08FF48145BB
:1057380003C58190753D03250A0097F0FF1FE78098
:10574800C02D23A60190F2406244D2444249B24996
:10575800224A924A024B0561828013974700369786
:10576800034707006305B70005041374F40F8507A2
:10577800A1BF83A70A0093954900BE9583C705007A
:10578800638467032300F90083C715001305290004
:105798007D14A300F900194689051374F40F97F0D6
:1057A800FF1FE78060842109850993F9F90FA5B7E0
:1057B80023A20400B5B7411122C406C62A8405E114
:1057C8000945EFF0CF9B2A8611C5854503C5019988
:1057D800EFD0FFB30545EFF05FC72A8409C98545B7
:1057E80003C50199EFD07FC92285EFF09FEAB24047
:1057F800224405454101828089671387B700631AEF
:10580800E5009387C1909C439DC39C4503C5070051
:105818005DB71387C7008147631CE5009C4503C536
:105828000700854711C59387C1909C43F5F38147CD
:105838003E8582801D7186CEA2CCA6CACAC8CEC6B5
:10584800D2C4D6C2DAC05EDE62DC66DA6AD86ED648
:1058580063080526834735002A8A95CB404105C849
:105868005945EFF0CF9193178501E187916B3EC4BD
:105878000149938AC19093890191930C000D130BF0
:10588800F00F138DEB7183473A006361F902F6401C
:105898006644D6444649B649264A964A064BF25BC0
:1058A800625CD25C425DB25D2561828083078402BE
:1058B800224763C1E72A83A70A00B5CB0347040040
:1058C8008547630BF7060346840093069400930507
:1058D800F1010545EFE08FE7814719C183470500CE
:1058E8008346040011476381E60203A70A008D4638
:1058F80003471700630AD70081CB19C70DC985462E
:10590800631FD7028D8B85C703451400130C240031
:10591800E285EFE02FFFA300A40083A70900AA8473
:10592800814D95E7034604009147631AF60C83A757
:1059380009006391072239A48147014555B7894673
:10594800E317D7FE858BC1B7850D93FDFD0F83C780
:10595800819003A50900E3F7FDFC93974D003E9560
:1059680003470500E30267FF03471500E31E97FCA2
:105978001946E28509053EC6EFD03F83B24769D58F
:1059880083A4090003470400BE94C9DC9147631C43
:10599800F708C84405C58347840003460500630625
:1059A800F608034704009147631FF708C84419C560
:1059B80097F0FF1FE780600623A6040003458400D4
:1059C800EA85050597F0FF1FE78080FB05C50347BB
:1059D800040091476312F708C8C4834784009305FD
:1059E80094000505A30FF5FE0346840097E0FF1F0A
:1059F800E780805F83478400639207140DBF83A705
:105A0800090095D783C581900147E302B7F2BE84A8
:105A1800C10703C507FF6300650D05071377F70F77
:105A2800EDB788C4FDA08844B5B793059400050573
:105A3800EFD0AFF78547E316F5F65545EFE03FF4AD
:105A4800630E050EEDB5884435D997F0FF1FE78042
:105A5800C0FC23A404009DB788C441B7B5472310F0
:105A680095012301F5008347040019469305240096
:105A7800A301F5008307840215052303F500834776
:105A88001400A30FF5FE97E0FF1FE780E0550346DB
:105A980084002386C40015C21385440188C8930571
:105AA800940097E0FF1FE780205483A70A00A6858B
:105AB80003C50700EFD0EFBB71A823A80400F5B712
:105AC8009387C1909C43E38407DCEFF09FBC0145BA
:105AD800EFF0BF976DBB2380C40083471400E285B5
